:020000040800F2
:100000004005002005010008531F0008D71800080C
:10001000511F0008130B000879220008000000009F
:10002000000000000000000000000000571F000852
:10003000150B000800000000551F0008591F00089C
:100040001F0100081F0100081F0100081F01000810
:100050001F0100081F0100081F0100081F01000800
:100060001F0100081F0100081F0100081F010008F0
:100070001F0100081F0100081F0100081F010008E0
:100080001F0100081F0100081F0100081F010008D0
:100090001F0100081F0100081F0100081F010008C0
:1000A0001F0100081F0100081F0100081F010008B0
:1000B0001F0100081F010008000000001F010008C8
:1000C0001F01000800000000000000001F010008E0
:1000D000000000001F0100081F01000800000000D0
:1000E0001F0100081F0100081F010008DFF810D0E1
:1000F00000F0ACFC0048004785410008AFF30080E9
:10010000400500200648804706480047FEE7FEE716
:10011000FEE7FEE7FEE7FEE7FEE7FEE7FEE7FEE7B7
:10012000BB1F0008ED0000082DE9F0410024061B6C
:10013000254671F1000605DA01240027D0EB0700FF
:1001400067EB0101161E73F1000605DA0027D2EBFA
:100150000702012567EB030300F033FB86460E46DA
:1001600017469C46AC4204D00025D0EB050E65EB4B
:10017000010624B10020D2EB000760EB030C7046AF
:1001800031463A466346BDE8F081202A04DB203A36
:1001900021FA02F00021704721FA02F3D040C2F1A7
:1001A00020029140084319467047D2B201E000F89E
:1001B000012B491EFBD270470022F6E710B513460B
:1001C0000A4604461946FFF7F0FF204610BD30B539
:1001D00004460020034600E05B1C934203D2E05C2F
:1001E000CD5C401BF8D030BDF0B480EA0102D40FE2
:1001F0004200B2EB410F02D20246084611464A00C5
:1002000042D0C30DDDB2C1F3C752AD1A202D35DA8D
:10021000C1F3160141F4000204B15242C5F12006B7
:1002200002FA06F12A411044B3EBD05F23D0C4B1E7
:10023000012DA0EBC35009DCF0BC4FF0004202EAF4
:10024000C352DBB200F5000000F016BB400000F125
:10025000807000EBC350A0F1807040EAD17049007B
:1002600009E0490841EAC071A0EBC35000F5000065
:10027000400800EBC350F0BC00F0F5BA6142012227
:1002800002EB4101001BF6E7F0BC704781F0004132
:10029000AAE780F00040A7E780EA010210B502F06B
:1002A0000043400022D04A001FD0010E01EB126132
:1002B000C0F35600C2F3560240F4000042F40002BC
:1002C000A0FB022000047F39140400D0401C50EA37
:1002D000124001D44000491EC2B20C0604EBD010FB
:1002E000401C4008802A02D003E0002010BD20F00E
:1002F0000100002900DA0020184310BD30B480EA64
:10030000010202F0004530F0004221F0004013D01D
:1003100090B1C30DD40DC2F31601C0F31600E41A58
:1003200041F4000140F400027D34914201D3641C89
:1003300000E04900002C02DA30BC002070474FF486
:1003400000000023914201D3891A034340084FEA79
:100350004101F7D151B1914202D14FF0004105E086
:1003600002D24FF0010101E06FF0010103EBC45034
:10037000284430BC00F077BA420005D0C0F3C75221
:100380005242914201DC0020704700EBC15070479F
:100390002DE9FE4F804681EA0300C00F0C46009015
:1003A00021F0004123F00045B8EB0200A94105D23D
:1003B0004046214690461C460B46024623F000402C
:1003C000104347D0270DC7F30A00C3F30A51029028
:1003D000401A019040286BDAC3F3130040F4801BED
:1003E0000098924620B10023D2EB030A63EB0B0B7B
:1003F00001985946C0F14002504600F013FA0646F3
:100400000D4650465946019A00F01BFA10EB0800C1
:100410006141002487EA115284EAE7731A4340D00D
:10042000009A62B3019A012A4FEA075215DC001BB9
:1004300061EB02014FF0004202EA0752CDE90042AF
:10044000001C41F5801132462B4600F052FA03B0F1
:10045000BDE8F08F40462146F9E7001B61EB020141
:10046000001C41F5801300185B412018A2F500170D
:1004700047EB030140EAD570B6196D4111E06D08F4
:100480004FEA360645EAC0754FEA0752001B61EB9A
:100490000201001C41F5801149084FEA30000019A3
:1004A000514132462B4603B0BDE8F04F00F012BA7E
:1004B0000098012240000023D0EB020263EBE073BE
:1004C000009821464FEAE074B8EB000061EB0401AC
:1004D000E9E783F000435BE781F0004158E72DE94D
:1004E000FE4F81EA030404F0004421F0004100942F
:1004F0004FF0000B23F0004350EA01045ED052EAB3
:1005000003045BD0C3F30A54C1F30A552C44A4F28C
:10051000F3340194A0FB0254C1F3130141F48011A0
:10052000C3F3130343F4801301FB024400FB034EA7
:10053000840A970A44EA815447EA8357A4FB076870
:1005400002958D0A05FB07854FEA932C04FB0C549A
:100550002705029D4FEA065847EA1637B5EB08050E
:100560006EEB070C870E920E47EA811742EA831260
:10057000A7FB0201B6EB0B0164EB00042B0D43EA71
:100580000C335E1844EB1C50DA465146E7FB02017F
:10059000C5F313044FEA0B3343EA14534FEA043212
:1005A000019C43EA0603A4F10C040294009CCDE9EB
:1005B00000B400F09EF903B0BDE8F08F00200146C2
:1005C000F9E72DE9F04D81EA030404F0004B21F036
:1005D000004514464FF0000A23F0004150EA05029E
:1005E00020D054EA01021DD0C5F30A570246C5F3D4
:1005F0001303C1F31300C1F30A5640F4801543F40A
:100600008013A7EB0608101BD64608F2FD3873EBE3
:10061000050002D308F1010801E092185B41B8F12E
:10062000000F03DA00200146BDE8F08D00204FF4F2
:100630008011064684460EE0171B73EB050705D3B1
:10064000121B63EB050306434CEA010C49084FEA11
:10065000300092185B4150EA0107EDD152EA0300E5
:1006600012D082EA040083EA0501084305D0101B7A
:10067000AB4106D20122002306E000224FF00043E6
:1006800002E06FF0010253101AEB06004CEB085128
:1006900010EB0A0041EB0B01BDE8F04D00F01AB978
:1006A000C10F80EAE0700844CA079623002100F0D9
:1006B000E3B896230022114600F0DEB80EB5C10F54
:1006C00080EAE0700844CA07002140F233438DE815
:1006D0000E000A460B4600F00CF903B000BD00F016
:1006E000004220F00040C10DC0F3160040F40000AD
:1006F0007F2901DA00207047962903DCC1F19601B9
:10070000C84001E096398840002AF4D04042704742
:1007100020F00040C10DC0F3160040F400007F2916
:1007200001DA00207047962903DCC1F19601C84028
:10073000704796398840704700F0004230F0004022
:100740000AD0C10D01F56071C0F3160042EA0151F3
:10075000C20840071143704700200146704701F06E
:10076000004330B421F0004150EA010206D00A0DE6
:10077000A2F56072C1F31301002A02DC30BC002034
:100780007047440F44EAC104C100E01830BC00EBDC
:10079000C25000F068B830B50B4601460020202258
:1007A000012409E021FA02F59D4205D303FA02F57E
:1007B000491B04FA02F52844151EA2F10102F1DCDE
:1007C00030BD2DE9F05F0546002092469B468846E5
:1007D0000646814640241BE02846414647462246BD
:1007E000FFF7D3FC53465A46C01A914110D3114625
:1007F0001846224600F016F82D1A67EB01084F46FE
:1008000022460120002100F00DF817EB00094E41AF
:10081000201EA4F10104DFDC484631462A46434647
:10082000BDE8F09F202A04DB203A00FA02F1002004
:1008300070479140C2F1200320FA03F3194390401E
:100840007047202A06DBCB17203A41FA02F043EA30
:10085000E07306E041FA02F3D040C2F12002914079
:100860000843194670470029A8BF7047401C49003B
:1008700008BF20F00100704710B4B0FA80FC00FA05
:100880000CF050EA010404BF10BC704749B1CCF130
:10089000200421FA04F411FA0CF118BF01212143BC
:1008A0000843A3EB0C01CB1D4FEA00614FEA102077
:1008B00042BF002010BC704700EBC3501044002919
:1008C000A4BF10BC7047401C490008BF20F00100C5
:1008D00010BC704710B5141E73F1000408DA401CF8
:1008E00041F1000192185B411A4301D120F001004F
:1008F00010BD2DE9F04D92469B4611B1B1FA81F23F
:1009000002E0B0FA80F220329046FFF78BFF0446F7
:100910000F4640EA0A0041EA0B0153465A46084393
:1009200013D0114653EA010019D0C8F140025046D5
:10093000FFF72BFC05460E46504659464246FFF748
:1009400071FF084305D0012004E020463946BDE888
:10095000F08D0020054346EAE0762C4337430A98A1
:100960006305E40AA0EB08000022FD0A44EA4754AC
:100970000A3002D500200146E9E701051019694156
:10098000DDE9084500196941BDE8F04DA2E770B501
:1009900021F0004303430CD0C1F30A550024D5EBEA
:1009A000040564EB0403D617AD1AB34102DB002043
:1009B000014670BD201841EB025170BDC1F30A52CF
:1009C000C1F3130140F2FF3341F480119A4202DA7D
:1009D00000200146704740F233439A42A2F233426C
:1009E00002DC5242FFF7D1BBFFF71CBF30B5041E3B
:1009F00071F1000404DB4FF00044404264EB01015C
:100A0000141E73F1000405DB1C464FF000435242F4
:100A100063EB04038B4208BF824230BD30B5041E35
:100A200071F1000404DB4FF00044404264EB01012B
:100A3000141E73F1000405DB1C464FF000435242C4
:100A400063EB0403994208BF904230BD064C074D4A
:100A500006E0E06840F0010394E80700984710348E
:100A6000AC42F6D3FFF746FB905F0008B05F00088A
:100A70002DE9F04D00231A461B1A8A4103DB0020A2
:100A80000146BDE8F08DC1F30A52C1F3130141F4F0
:100A900080154FF0000BD10702D100186D41521E96
:100AA0000027044640F2FF11384601EB620A3E4639
:100AB0008046024600204FF48011FFF766FBC21902
:100AC0007141BB1846EB0100B4EB030C75EB000C55
:100AD00004D3E41A65EB000517460E46241908F105
:100AE00001006D4180463428E3DDF91946EB06002C
:100AF000091BA84103D24FF0FF32134601E0002248
:100B000013461BEB070046EB0A51BDE8F04DFFF71B
:100B1000E1BEFEE7704772B6FEE7000070B504461E
:100B200000F0F8F80546601C02D004480078044440
:100B300000F0F0F8401BA042FAD370BD0000002086
:100B40002DE9F84FDFF89C91002409F1040A0AF11D
:100B5000040B23460F270BF1040EBBE00125A54033
:100B60002A40AA4276D1DFF880C14E68A6EB0C0875
:100B700066452BD00DDC032E34D005DC36B3012EB8
:100B800019D0022E2FD11BE0112E16D0122E2AD1F1
:100B900019E0B8F5881F19D006DCB8F5803F15D0EC
:100BA000B8F5801F1FD111E0B8F5001F0ED0B8F5C1
:100BB000041F18D10AE0CB6815E0CB681B1D12E0BA
:100BC000CB6808330FE0CB680C330CE08B682BB19B
:100BD000012B4FF0080303D0456104E0042302E039
:100BE000056100E00023FF2A01D8064601E000F17C
:100BF00004064FEA840501D9A5F12005D6F8008046
:100C000007FA05FC28EA0C0803FA05F548EA050886
:100C1000C6F800804D68ED005BD5344DAE6946F0F6
:100C20000106AE61AD6924F0030605F001050095EB
:100C30002F4D06EB050CDCF80850A607360F07FA17
:100C400006F825EA0805DFF8AC80404503D14FF0EF
:100C5000000810E03DE0DFF8A080404502D14FF0F1
:100C6000010808E0DFF89480404502D14FF0020807
:100C700001E04FF0030808FA06F848EA0508CCF846
:100C800008804D68D9F80060ED034D4601D5164344
:100C900000E096432E604D68DAF80060AD035546DB
:100CA00001D5164300E096432E604D68DBF80060E6
:100CB000ED025D4601D5164300E096432E604D6877
:100CC000DEF80060AD02754601D5164300E096439C
:100CD0002E60641C0A6832FA04F57FF43FAFBDE869
:100CE000F88F0000000401400000111000100240C5
:100CF0000000014000080140000C014000100140CC
:100D00008068084000D0012070470AB10161704737
:100D10000904FBE7014880687047000000000020DC
:100D200070B5040025D094F83D00002520B984F862
:100D30003C50204600F0B8F8242084F83D0020689C
:100D4000016821F0010101602068016841F400415F
:100D500001602068016821F40041016000F0F2F9AF
:100D60004D4A6168914201D84C4900E04C498842A3
:100D700001D2012070BD4B492368B0FBF1F15E68E0
:100D800026F03F060E435E606368934206D94FF437
:100D9000967359434FF47A73B1FBF3F12368491CFE
:100DA0001E6A26F03F06314319626168914210D8ED
:100DB0004900401EB0FBF1F2521CC2F30B02042AA0
:100DC00001D2042022E0B0FBF1F0401CC0F30B0084
:100DD0001CE0A268F2B301EBC10303EB0116431E52
:100DE000B3FBF6F35B1C43F480431B0549D092B37D
:100DF00001EBC10202EB0111401EB0FBF1F0401CFF
:100E0000C0F30B0040F4804040F400402168CA6900
:100E10004CF6FF739A431043C861D4E907100143AD
:100E20002068026822F0C00211430160D4E9030186
:100E300001432068826848F2FF339A43114381607E
:100E4000D4E9050108432168CA6822F0FF02104373
:100E5000C86001E00EE016E02068016841F0010181
:100E600001602564202084F83D00256384F83E500D
:100E7000002070BD01EB4106431EB3FBF6F35B1C83
:100E8000B3E70120C2E701EB4101401EB0FBF1F0E6
:100E9000401CC0F30B00B7E7A086010080841E0051
:100EA00000093D0040420F0010B586B000210091BE
:100EB00001910291039100681249884220D1124C9D
:100EC000A06940F00800A061A069694600F0080030
:100ED00004904FF440700090122001900B48FFF7EF
:100EE0002FFE0B48416841F0E06141F00201416092
:100EF000E06940F40010E061E06900F40010049043
:100F000006B010BD0054004000100240000C01402B
:100F100000000140024881680278114481607047F6
:100F200000000020074810B5016841F01001016081
:100F3000032000F05FF80F2000F006F800F024F81E
:100F4000002010BD0020024070B50D4D04464FF446
:100F50007A712878B1FBF0F00A490968B1FBF0F02A
:100F600000F0D6FA48B9102C07D200222146501EB4
:100F700000F020F800206C6070BD012070BD000002
:100F8000000000200C000020094808B5816941F0EC
:100F900001018161816901F001010091C16941F0A4
:100FA0008051C161C06900F08050009008BD000010
:100FB00000100240F0B40E4B1B680C46C3F3022332
:100FC000C3F10705042D00D90425191D072901D2F5
:100FD000002300E0DB1E012606FA05F1491E214030
:100FE00099409E40761E16403143F0BC01F06AB92C
:100FF0000CED00E0064900F0070208684FF6FF0319
:10100000184040EA0220034A10430860704700007D
:101010000CED00E00000FA052DE9F0470F46050051
:1010200061D0434E306800F00700B84209D2306802
:1010300020F0070038433060306800F00700B84205
:1010400051D128683B4C810712D5400703D5606811
:1010500040F4E06060602878000703D5606840F4E1
:10106000605060606068A96820F0F000084360602C
:101070002878C00728D06868012810D02168022885
:1010800010D0890700292EDA616821F0030101439D
:101090006160FFF73FFE804641F288390DE021682C
:1010A0008903EFE78901EDE7FFF734FEA0EB0801C4
:1010B000494502D90320BDE8F0876068696800F0FF
:1010C0000C00B0EB810FEFD1306800F00700B842A0
:1010D0000BD9306820F0070038433060306800F0EA
:1010E0000700B84201D00120E5E72878400705D580
:1010F0006068E96820F4E0600843606028780007D1
:1011000006D56068296920F4605040EAC10060603B
:1011100000F038F86168084AC1F30311515CC84017
:101120000649086006480068FFF70EFF0020C2E786
:101130000020024000100240EC5100080C0000208A
:10114000040000200448054900684968044AC1F3C6
:101150000221515CC84070470C0000200010024082
:10116000FC5100080448054900684968044AC1F375
:10117000C221515CC84070470C00002000100240A2
:10118000FC51000812A185B00FC98DE80F0014A012
:10119000144A006804905168134801F00C03042BB2
:1011A00010D0082B0ED1C1F38343C9031DF80300EF
:1011B0000AD5516804AAC1F34041515C0A4A504320
:1011C000B0FBF1F005B0704708494843FAE700006A
:1011D00002030405060708090A0B0C0D0E0F101078
:1011E000010200000010024000127A0000093D00D8
:1011F0002DE9F84F040070D02078C04DC00749D0C9
:101200006868C0F38100012807D06868C0F38100D6
:10121000022809D16868C00306D52868800339D53B
:1012200060680028E7D035E06068B0F5803F0BD0FB
:1012300010B1B0F5A02F11D0286820F480302860BC
:10124000286820F4802002E0286840F4803028607C
:10125000606890B1FFF75EFD06460AE0286840F43A
:1012600080202860F0E700BFFFF754FD801B642852
:1012700073D828688003F7D50CE0FFF74BFD0646CE
:1012800005E000BFFFF746FD801B6428F0D8286802
:101290008003F7D420789A4E80074FF001094FF071
:1012A000000839D5686810F00C0F07D06868C0F3E3
:1012B0008100022809D16868C00306D42868800725
:1012C00014D52069012808D110E02069B0B1C6F812
:1012D0000090FFF71FFD074605E00AE1FFF71AFD42
:1012E000C01B0228C4D828688007F7D52868616920
:1012F00020F0F80040EAC10028600DE0C6F8008048
:10130000FFF708FD074604E0FFF704FDC01B0228B5
:1013100023D828688007F7D4207800072CD579488F
:10132000A169D9B1C0F80090FFF7F4FC074604E0CA
:10133000FFF7F0FCC01B02280FD8686A8007F7D5BA
:1013400071484FF4FA510068B0FBF1F0009000BF13
:101350000098411E0091FAD20EE080E0C0F80080B3
:10136000FFF7D8FC074604E0FFF7D4FCC01B0228B7
:1013700075D8686A8007F7D42078400760D5E86997
:101380000027C00008D4E86940F08050E861E869AF
:10139000012700F0805000905C480168C90513D413
:1013A0000168834641F480710160FFF7B3FC824617
:1013B00006E000BFFFF7AEFCA0EB0A0064284ED8A1
:1013C000DBF80000C005F5D5E06801280AD008B1B7
:1013D000052813D0286A20F001002862286A20F02E
:1013E000040002E0286A40F001002862E06841F24F
:1013F000883B98B1FFF78EFC82460BE0286A40F0EC
:1014000004002862EEE700BFFFF784FCA0EB0A01AE
:1014100059455AD8286A8007F6D50CE0FFF77AFCC0
:10142000824605E0FFF776FCA0EB0A0159454CD84F
:10143000286A8007F6D41FB1E86920F08050E8617F
:10144000E06988B36968C1F38101022944D00228A8
:10145000C6F8608004D0FFF75DFC044638E034E055
:10146000FFF758FC074604E0FFF754FCC01B0228B6
:101470002BD828688001F7D4206AB0F5803F05D1C9
:101480006868A16820F4003008436860D4E9080166
:101490000843696821F4741108436860C6F86090D5
:1014A000FFF738FC044606E025E000BFFFF732FCFA
:1014B000001B022809D828688001F7D51BE000BF6F
:1014C000FFF728FC001B022802D90320BDE8F88F93
:1014D00028688001F4D40EE00128F7D06868226AF9
:1014E00000F48031914204D1616A00F470108842A6
:1014F00001D00120EAE70020E8E7000000100240E8
:1015000000004242800442420C0000200070004073
:1015100010B5401EB0F1807F01D3012010BD4FF007
:10152000E02460610F21601700F0CCFE0020A06174
:1015300007202061002010BD70B590F83C20012AE2
:1015400023D0012480F83C40022280F83D2003682B
:101550005A689D6822F070060A6832435A600C4B44
:1015600002689A4205D0B2F1804F02D0094B9A42EC
:1015700004D1496825F080031943916080F83D400B
:10158000002180F83C10084670BD022070BD0000AC
:10159000002C01400004004010B586B000210091ED
:1015A00001910291039100681349884221D11348A7
:1015B000816941F004018161816901F004010491B4
:1015C000816941F0080181618069022400F008000E
:1015D0000490C020CDE90004694609480394FFF750
:1015E000AFFA0320CDE90004694606480394FFF7EB
:1015F000A7FA06B010BD0000000400400010024031
:1016000000080140000C014070B5044690F83C0011
:101610000D4601280AD0012084F83C0042B1042A7A
:1016200018D0082A2AD00C2A4DD139E0022070BDEA
:10163000206800F0F1FC2068816941F008018161B7
:101640002068816921F004018161206881692A692B
:10165000114311E0206800F007FD2068816941F422
:10166000006181612068816921F480618161206865
:1016700081692A6941EA0221816124E0206800F041
:101680001FFD2068C16941F00801C1612068C1697E
:1016900021F00401C1612068C1692A69114311E088
:1016A000206800F039FD2068C16941F40061C16122
:1016B0002068C16921F48061C1612068C1692A691B
:1016C00041EA0221C161002084F83C0070BD10B5E0
:1016D000040003D094F83D0010B107E0012010BDD4
:1016E000002084F83C00204600F01EF8022084F818
:1016F0003D00211D206800F061FC012084F84600B7
:1017000084F83E0084F83F0084F8400084F84100EB
:1017100084F8420084F8430084F8440084F84500CB
:1017200084F83D00002010BD08B5006806498842D5
:1017300008D10648C16941F00201C161C06900F0E9
:101740000200009008BD00000004004000100240AC
:1017500070B5040004D094F83D00002510B106E0F7
:10176000012070BD84F83C50204600F023F824206E
:1017700084F83D002068C16821F40051C160204612
:1017800000F0ECFC2068016921F4904101612068BF
:10179000416921F02A0141612068C16841F400518A
:1017A000C1602564202084F83D0084F83E000020BC
:1017B00070BD000030B585B00024009401940294FF
:1017C000039400681449884224D11448816941F483
:1017D00080418161816901F480410491816941F016
:1017E0000401816180690E4D00F0040004904FF403
:1017F0000070009002200190032003906946284663
:10180000FFF79EF92815CDE90004694628460294A1
:10181000FFF796F905B030BD0038014000100240D6
:10182000000801402DE9F843044690F83D001F46AA
:1018300016460D4620284CD1C5B1BEB194F83C00E7
:10184000012846D0012084F83C004FF00008C4F87D
:101850004080212084F83D00FFF75CFAA684814691
:10186000E684A068B0F5805F03D004E00120BDE805
:10187000F883206928B12E465FF0000584F83C808B
:101880000EE00026FAE78021204600F0C3FCA0B954
:10189000AEB116F8010B21684860E08C401EE08470
:1018A000E08C4B464FF0000200970028EBD14FF040
:1018B0004001204600F0AEFC30B10320D7E735F8F8
:1018C000020BC0F30800E6E7202084F83D0000206A
:1018D000CDE70220CBE7FEE770B5104D4FF4007462
:1018E000002221462846FFF710FA00F019F80122DD
:1018F000160231462846FFF708FA00F011F80022D8
:1019000031462846FFF701FA00F00AF8214628463A
:10191000BDE870400122FFF7F8B90000000C01405B
:101920000020401CC0B20A28FBD370470C4800B509
:10193000816985B041F0080181618069694600F0E4
:10194000080004904FF44070009003200390112091
:1019500001900448FFF7F4F800F0AAF805B000BDC4
:1019600000100240000C014070B50C4C01225102E5
:101970002046FFF7CAF9FFF7D3FF012215022946D7
:101980002046FFF7C2F9FFF7CBFF00222946204689
:10199000FFF7BBF9BDE87040FFF7C2BF000C014084
:1019A0002DE9F0470024164E804625464FF4007975
:1019B0004FF480776006040E012239463046FFF767
:1019C000A4F9FFF7ADFF49463046FFF799F908B192
:1019D000641CE4B2002239463046FFF796F9FFF75F
:1019E0009FFF6D1CEDB2082DE4D3B8F1000F04D0B9
:1019F000FFF772FF2046BDE8F087FFF7B5FFF9E774
:101A0000000C01402DE9F041174E054600244FF42B
:101A100080774FF40078280601D5012200E00022EB
:101A200041463046FFF771F9FFF77AFF0122394648
:101A30003046FFF76AF9FFF773FF00223946304658
:101A4000FFF763F9072C04D1012241463046FFF726
:101A50005CF96806050EFFF763FF641CE4B2082C0E
:101A6000D9D3BDE8F0810000000C014070B501221F
:101A70000E4D540221462846FFF747F9012216026F
:101A800031462846FFF741F9FFF74AFF0022214679
:101A90002846FFF73AF9FFF743FF00223146284670
:101AA000FFF733F9BDE87040FFF73ABF000C014083
:101AB00070B50B4D4FF40074002221462846FFF705
:101AC00024F9012211022846FFF71FF9FFF728FF2A
:101AD00021462846BDE870400122FFF716B90000F4
:101AE000000C014070B50122104D540221462846D9
:101AF000FFF70BF9FFF714FF0122160231462846C3
:101B0000FFF703F9FFF70CFF21462846FFF7F8F827
:101B100008B1012400E00024002231462846FFF7E6
:101B2000F4F8FFF7FDFE204670BD0000000C0140F8
:101B30007CB514460D4606466B4606223B216820BE
:101B400000F0A6F800280BD1BDF8001049BA31808A
:101B5000BDF8021049BA2980BDF8041049BA2180A5
:101B60007CBD7CB514460D4606466B4606224321D5
:101B7000682000F08DF800280BD1BDF8001049BA9C
:101B80003180BDF8021049BA2980BDF8041049BA65
:101B900021807CBD08B56B4602224121682000F0FF
:101BA00077F8BDF8000040BA00B2FEF787FD0022CA
:101BB000074BFEF706FD074A074BFEF7E9FBFEF76A
:101BC000CEFD0649FEF768FBFEF789FD00B208BDB1
:101BD00000407540A4703D0AD74342400000C8420F
:101BE00010B5FFF7A3FE80216B2000F0C0F8642041
:101BF000FEF794FF00216B2000F0B9F8032000F0FD
:101C000082F8002000F07AF8322000F099F80021E4
:101C1000382000F0ACF800216A2000F0A8F800217C
:101C2000232000F0A4F88021372000F0A0F87520D0
:101C300000F011F8682801D0012010BD01216B20AF
:101C400000F095F800216C2000F091F8322000F0AF
:101C500077F8002010BD10B50446FFF707FFD0202D
:101C6000FFF7D0FEFFF73EFF2046FFF7CBFEFFF762
:101C700039FFFFF7FBFED120FFF7C4FEFFF732FF6D
:101C80000020FFF78DFE0446FFF712FF204610BD2F
:101C90002DE9F0411D4614460F460646FFF7E6FEC5
:101CA0007006000EFFF7AEFEFFF71CFF20B1FFF736
:101CB000FFFE0120BDE8F0813846FFF7A3FEFFF7E5
:101CC00011FFFFF7D3FE012000EB4600C0B2FFF783
:101CD00099FEFFF707FF09E0012C0DD05FF001002E
:101CE000FFF75EFE641E05F8010BE4B2002CF3D191
:101CF000FFF7DEFE0020DDE70020F1E7C006010E61
:101D00001C2000F034B8C006010E1B2000F02FB8D4
:101D1000BC2801D3012110E0622801D302210CE08C
:101D20002A2801D3032108E0142801D3042104E068
:101D30000A2801D3052100E006211A2000F017B877
:101D400010B504464FF47A70844201D9044602E08B
:101D5000042C00D20424B0FBF4F0401EC1B21920C0
:101D600000F005F86008BDE81040FFF7D1BF70B57E
:101D70000C460546FFF77AFED020FFF743FEFFF73B
:101D8000B1FE50B92846FFF73DFEFFF7ABFE2046F7
:101D9000FFF738FEFFF7A6FE18B1FFF789FE012016
:101DA00070BDFFF785FE002070BD2DE9F0411E4695
:101DB00015460F460446FFF759FE6006000EFFF772
:101DC00021FEFFF78FFE60B93846FFF71BFEFFF7D5
:101DD00089FE00240CE0305DFFF714FEFFF782FE61
:101DE00020B1FFF765FE0120BDE8F081641CE4B27C
:101DF000AC42F0D3FFF75CFE0020F5E70D4808B5D4
:101E0000816941F020018161816901F02001009127
:101E1000816941F004018161816901F0040100914F
:101E2000816941F008018161806900F0080000903B
:101E300008BD0000001002400D4810B50B490160BC
:101E40000C49416000214FF480428160C0E90312D7
:101E500041618161C1610162FEF762FF002803D028
:101E6000BDE81040FEF757BE10BD00000054004012
:101E700050000020A086010010B58AB0002407940D
:101E80001C2168460894FEF797F922482049C0E9CA
:101E900000144FF6FF71C0E9024104618461FFF74D
:101EA00016FC08B1FEF737FE079407A919480894F5
:101EB000FFF742FB08B1FEF72EFE6020CDE90004DB
:101EC00002940022694613480494FFF79DFB08B171
:101ED000FEF721FE042269460E48FFF795FB08B184
:101EE000FEF719FE082269460A48FFF78DFB08B184
:101EF000FEF711FE0C2269460648FFF785FB08B184
:101F0000FEF709FE0348FFF747FB0AB010BD0000CB
:101F100000040040A40000200C4810B50A490160EC
:101F20004FF4E1314160002181600C22C160C0E9C1
:101F300004128161C161FFF70BFC002803D0BDE8EA
:101F40001040FEF7E8BD10BD00380140EC00002055
:101F5000FEE7FEE770477047FEF7DCBF30B58FB095
:101F600028216846FEF728F914210AA8FEF724F96B
:101F700001210804CDE900100024029402250491F7
:101F8000CDE907504FF4E01009906846FFF730F9AB
:101F900008B172B6FEE70F20CDE90A054FF4806064
:101FA000CDE90C4002210AA80E94FFF735F800286D
:101FB00001D072B6FEE70FB030BD704770B5026851
:101FC000134B144C4FF08046984203D0B04201D0DE
:101FD000A04203D122F070054A682A43984203D0F8
:101FE000B04201D0A04203D122F44074CA68224317
:101FF0004C6922F08002224302608A68C2620A6849
:102000008262984201D1096901630121416170BD79
:10201000002C01400004004030B5026A22F00102A9
:102020000262026A4368846924F073050C682C43D9
:1020300022F002058A682A430A4DA8420BD122F0F9
:102040000805CA6823F440732A434D6922F004024C
:102050001D438B692B43436084614968416302627D
:1020600030BD0000002C014030B5026A22F01002A1
:102070000262026A436884690D6824F4E64444EA13
:1020800005248D6822F0200242EA05120B4DA84279
:102090000ED1CD6822F0800242EA05124D6923F488
:1020A000406343EA85038D6922F0400243EA8503D9
:1020B0004360846149688163026230BD002C014045
:1020C00030B5026A22F480720262036A4268C4690F
:1020D00023F4007324F073050C682C438D6843EAE5
:1020E00005230C4DA8420ED1CD6823F4006343EACA
:1020F00005234D6922F4405242EA05128D6923F40A
:10210000806342EA05124260C4614968C1630362A8
:1021100030BD0000002C014030B5026A22F480522C
:102120000262046A4268C3690D6823F4E64343EA25
:1021300005238D6824F4005444EA0534064DA84272
:1021400004D14D6922F4804242EA85124260C361A3
:1021500049680164046230BD002C014070B504463A
:1021600000680169E26821F440511143016121696D
:10217000A0680843616908432168CA6841F20C639A
:102180009A430243CA6020684169A26921F4407100
:10219000114341611E492068884202D1FEF7E2FFE7
:1021A00001E0FEF7CFFF00EBC00101EB0012606819
:1021B00064218000B2FBF0F3B3FBF1F36FF018067B
:1021C0007343B2FBF0F5B2FBF0F605EB8305322367
:1021D00003EB0515B5FBF1F5B6FBF1F605F0F005DF
:1021E00005EB0615B2FBF0F6B2FBF0F0B0FBF1F038
:1021F0006FF01802504306EB800003EB0010B0FBB9
:10220000F1F0216800F00F002844886070BD0000E4
:10221000003801402DE9F041984617460E46044625
:10222000069D1DE0681C1BD02DB1FEF773FDA0EBD1
:102230000800A84214D92068C16821F4D071C16097
:102240002068416921F001014161202084F83D00AE
:1022500084F83E00002084F83C000320BDE8F081B3
:102260002068006836EA000004D00020B842D9D0C7
:102270000020F3E70120F9E7FEE700000FB4054B6B
:1022800010B503A9044A029800F06CF910BC5DF87F
:1022900014FB00006D3C000848000020490050EA93
:1022A000C12018BF04204A0D18BF40F0010040F2C1
:1022B000FF72B2EB515F08BF40F00200012808BF77
:1022C000052070470907090E002804DB00F1E02013
:1022D00080F80014704700F00F0000F1E02080F853
:1022E000141D70472DE9F0414F1E00EBC701044655
:1022F000D1E9000115461E4637F006020DD02A46E8
:102300003346FEF7ECF87F1E04EBC703D3E9002346
:10231000FEF73EF837F00602F1D1022F25D0042F48
:1023200013D0062F18BFBDE8F0812A463346FEF7CA
:10233000D6F8D4E90A23FEF72BF82A463346FEF7EF
:10234000CEF8D4E90823FEF723F82A463346FEF7F1
:10235000C6F8D4E90623FEF71BF82A463346FEF7F3
:10236000BEF8D4E90423FEF713F82A463346FEF7F5
:10237000B6F8D4E90223FEF70BF82A463346FEF7F7
:10238000AEF8D4E90023BDE8F041FEF701B8012220
:10239000FEF7FDBAFDF7FCBF0022134610461146BA
:1023A000FEF70FB9024A00201107FEF7F0BA00004D
:1023B00001FDFFFF02E008C8121F08C1002AFAD180
:1023C00070477047002001E001C1121F002AFBD1B5
:1023D0007047000001490860704700004C00002071
:1023E0002DE9FF5F82B00021DDE90430020DDDF848
:1023F00040B0034318D044F61050A2F2FF324243DB
:102400001514119801281FD0A5EB0B00401C5FEAA2
:10241000000A4FF000064E4FDFF83891B0465046A4
:1024200015D5CAF1000413E0119801244AA301282C
:1024300001D16FEA0B010298119AC0E90031C0E99D
:10244000024206B0BDE8F09FCBF10000DFE7044692
:102450000021404A491842EB0450CDE9001012E037
:10246000E00707D032463B4640464946FEF737F87C
:102470008046894632463B4610461946FEF72FF8FD
:1024800006460F466410002CEAD1DDE90401DDE9BF
:102490000023BAF1000F06DAFEF721F842464B4658
:1024A000FEF71DF805E0FEF78CF842464B46FEF7B6
:1024B00088F804460E460022284BFEF7AFFA03D8F0
:1024C0004FF0FF30014607E00022254B2046314601
:1024D000FDF75EFFFEF772FA102409E0002C0ADB1C
:1024E0000A220023FEF76DF9039B30321A55641E51
:1024F00050EA0102F2D1641C039AC4F1110314449E
:10250000119A012A03D0012208430DD10AE00843A1
:1025100004D000204FF0110B119072E7A3EB0B05D4
:102520006D1E0DE05B4504DD4FF0000205F1010575
:1025300004E003DA4FF00002A5F10105002AECD017
:1025400002981199C0E90231C0E9004579E700001D
:10255000000014400000F03F300000000000F04395
:102560000000E03F2DE9FF4F95B09A4688460646A9
:102570000025EEE1252877D100242746F94A0121DC
:10258000039400E0044316F8013F203B01FA03F0F6
:102590001042F7D130782A2811D06FF02F0330780D
:1025A000A0F13002092A16D8039A44F0020402EB83
:1025B000820203EB42021044761C0390EFE758F8C6
:1025C000042B0392002A03DA504244F4005403908F
:1025D00044F00204761C30782E2816D116F8010F2C
:1025E00044F004042A280DD06FF02F023078A0F1B7
:1025F0003003092B09D807EB870302EB4303C71805
:10260000761CF3E758F8047B761C30786C280FD0E2
:1026100006DC4C2817D068280DD06A2814D104E0B5
:10262000742810D07A280FD10DE044F400140AE089
:1026300044F4801401E044F440147278824202D1E0
:1026400004F58014761C761C307866280BD013DCD9
:10265000582877D009DC002875D04528F6D04628C0
:10266000F4D047281AD193E118E0632835D06428C4
:1026700079D0652812D18BE1702873D008DC6728E7
:10268000F1D069286FD06E280DD06F2806D1ACE04C
:1026900073282CD0752874D0782853D052461799B7
:1026A00090476D1C54E1C4F30250022809D003285E
:1026B0000DD0D8F8001004280DD00D6008F10408E2
:1026C00046E1D8F80010EA17C1E90052F6E7D8F859
:1026D00000100D80F2E70D70F0E718F8041B8DF87C
:1026E000001000208DF80100EB46012003E058F8AF
:1026F00004BB4FF0FF3061074FF0000102D40DE042
:1027000009F101018946B9420FDA8145F8DB1BF86E
:1027100009100029F4D108E009F10101894681423C
:10272000FADB1BF809100029F6D103985346A0EBF9
:10273000090721463846179A00F080FA284400EB32
:10274000090507E044E008E10DE01BF8010B5246E3
:1027500017999047B9F10109F7D2534621463846F7
:10276000179AF2E039E00A21C4F302524FF0000B4D
:102770000091022A06D058F8040BC117032A09D089
:102780000AE023E008F1070020F00702F2E8020166
:10279000904605E000B2C117042A01D140B2C1172A
:1027A000002906DA0A460021404261EB02012D228F
:1027B00002E0220504D52B228DF80420012203E03B
:1027C000E20701D02022F7E7914657E00A2100E016
:1027D00010214FF0000B00910BE010214FF0000B87
:1027E00044F004040827009103E008204FF0000B98
:1027F0000090C4F30252022A05D058F8040B0021BD
:10280000032A08D008E008F1070020F00702F2E8E8
:102810000201904603E080B2042A00D1C0B24FF01A
:10282000000922072AD53278702A07D0DDF800C0C7
:102830008CF0100C5CEA0B0C05D00EE040228DF8F9
:102840000420012208E050EA010306D030238DF86D
:1028500004308DF8052002229146009B83F0080386
:1028600053EA0B030AD150EA010201D1620705D5F0
:1028700030228DF804204FF001097F1E3278582A4B
:1028800004D039A20C920CAA02920BE03BA2F9E709
:102890005B46009AFDF795FF0C9B9B5C029A521ECB
:1028A0000292137050EA0102F2D1029804A9081AA8
:1028B00000F1200B600702D524F4803400E00127EA
:1028C0005F4502DDA7EB0B0000E0002000EB0B01F1
:1028D000009003984944401A0390E00306D45346FD
:1028E0002146179A039800F0A9F90544002706E04D
:1028F00001A85246C05D179990476D1C7F1C4F453B
:10290000F6DBE0030CD553462146179A039800F0F6
:1029100095F9054404E030205246179990476D1C04
:102920000099481E00900029F5DC08E00298029901
:1029300052460078491C0291179990476D1CBBF1D3
:102940000001ABF1010BF1DC5BE100F065F905443E
:10295000761C307800287FF40DAE19B02846BDE80B
:10296000F08F00000928010030313233343536371A
:1029700038396162636465660000000030313233CB
:10298000343536373839414243444546000000006B
:10299000600700D4062708F1070020F00700F0E8E0
:1029A0000223804603F0004C5FEA0C0001D097A0A0
:1029B00009E0200501D596A005E0E00701D095A02B
:1029C00001E0AFF24C001390307823F0004365280B
:1029D0000CD006DC452809D046281DD047287FD1D9
:1029E0003BE0662818D067287AD136E00021112F05
:1029F00001DB112000E0781CCDE9000104A90CA83E
:102A0000FFF7EEFCDDE90D010C9A4FF0000B07F12A
:102A10000109109200914EE04FF000400097CDE97F
:102A2000011004A90CA8FFF7DBFCDDE90D020C9BEB
:102A30000F994FF0000B91461093009211B9791C39
:102A400000EB0109B7EB090003D4C0F1FF3B07F12C
:102A50000109A9EB0700019042E0012F00DA0127EC
:102A60000021112F01DD112000E03846CDE90001E1
:102A700004A90CA8FFF7B4FCDDE90D010C9A009144
:102A80004FF0000BB946109221070FD4009A4A4527
:102A900003DA914601E0A9F10109B9F1010F05DD61
:102AA000109AA9F10101515C3029F4D0B84202DA40
:102AB00010F1040F03DA0121CDE9011010E0002824
:102AC00003DC8344A9EB000102E0411C494500DD21
:102AD0008946A0EB0B00401C01904FF00040029093
:102AE000200705D40198484502DB4FF0FF300190E4
:102AF00000208DF84B0002980DF14B07B0F1004F0C
:102B000025D002200C902B200D90029800280CDA82
:102B1000404202902D200D9007E00A210298FDF717
:102B20003AFE3031029007F8011D0C99481E0C90B6
:102B30000029F2DC02980028EFD1791E0D98087068
:102B4000307800F0200040F0450007F8020D11A891
:102B5000C01BC01D02901398007800B1012000EB4B
:102B60000901019801EBE071029801440398401AB1
:102B7000401E0390E00306D453462146179A03985B
:102B800000F05CF805441398007818B15246179984
:102B900090476D1CE00323D553462146179A0398AE
:102BA00000F04CF805441BE0BBF1000F07DB009878
:102BB000584504DD1098179910F80B0001E017999B
:102BC00030205246904701980BF1010B401E05F151
:102BD0000105019004D12E205246179990476D1C93
:102BE000B9F10001A9F10109DEDC05E017F8010BDC
:102BF0005246179990476D1C0299481E0290002971
:102C0000F4DC53462146179A03989EE62D000000F7
:102C10002B000000200000002DE9F04104460025B3
:102C20001E461746880404D405E039462020B047E4
:102C30006D1C641EF9D52846BDE8F0812DE9F041F0
:102C4000044600251E469046C80301D5302700E003
:102C50002027880404D505E041463846B0476D1C5E
:102C6000641EF9D52846BDE8F08100002DE9FE4F2D
:102C700007460E460025684601F004F800246FF070
:102C80000F0AE8464FF0010957F8240056F82410BF
:102C9000401A00D54042FDF703FD5146FDF76CFB9D
:102CA00058F8241011F0FF4F0BD0FDF727FB4FF021
:102CB0007E51FDF7EBFA0A4920F00040884205DC1E
:102CC00007E0084908440849884202D309FA04F099
:102CD0000543641C032CD7DB2846BDE8FE8F0000AB
:102CE000295C0F3E666666C19A99D9002DE9F04DC0
:102CF0008D4F21F0004A86B005460C46BA452ADBC6
:102D0000AAEB070028430AD08848824501DC1AD183
:102D1000CDB106B02846BDE8F04DFFF738BB844A78
:102D2000844B2846FDF7DBFB07460E46824A834B61
:102D300028462146FDF7D3FB06B03A463346BDE8A8
:102D4000F04DFDF725BB0120FFF744FB06B0BDE8C1
:102D5000F04DFFF721BB7A48824542DABAF1795F3C
:102D60000BDA2846FFF79AFA042808BFFFF71AFB88
:102D7000284606B02146BDE8F08D2A460B4610468F
:102D8000FDF7ADFB834602466E480E460B46062114
:102D90007844FFF7A7FA5A463346FDF7A0FB804672
:102DA00069488A465A46334604217844FFF79AFA1E
:102DB0005A463346FDF793FB00223B46FDF7E8FAFF
:102DC00002460B4640465146FDF7FBFB2A4623468A
:102DD000FDF785FB06B02A462346BDE8F04DFDF71A
:102DE000D7BA284624F0004100223D463B46FDF775
:102DF00073FB4FF0FF32FDF7CAFD0646024653480B
:102E00000F460B4606217844FFF76CFA32463B46E4
:102E1000FDF765FBCDE900014D4832463B460421F4
:102E20007844FFF75FFA32463B46FDF758FB002235
:102E30002B46FDF7ADFA834602913046394602F043
:102E4000AFF9804643480D46504517DCDDE90001E7
:102E50005A46029BFDF7B5FB42462B46FDF73FFB6A
:102E600042462B46FDF794FA0122FDF790FD304AC9
:102E7000304BFDF72EFB304A304B4CE04FF0000A50
:102E800052460B464046FDF783FACDE90310524601
:102E90002B4610461946FDF722FB32463B46FDF70E
:102EA0001BFBDDE90332FDF78CFB06460F46DDE92F
:102EB00000015A46029BFDF784FB834600910122E4
:102EC00030463946FDF763FD194A1A4BFDF704FBFE
:102ED00006460F46012240462946FDF758FD5A4650
:102EE000009BFDF7FCFA32463B46FDF7F2FA064638
:102EF0000F46012250462946FDF749FD0E4DDFF8E9
:102F000058802A464346FDF7E7FA32463B46FDF72E
:102F1000E3FA2A464346FDF7DFFA002CD8BF81F0DA
:102F2000004106B0BDE8F08D0000F03F0000F07FEA
:102F3000075C143326A6913C182D4454FB21F93F1D
:102F40000000E03FBC300000D230000046300000FE
:102F50005C3000003333EF3FFB21E93F2DE9F84FB0
:102F600004460D4621F0004000917349814211DC76
:102F70007249884201DC06D12CB120462946BDE8C1
:102F8000F84FFFF704BA6E48002DCCBF6D496E496B
:102F9000BDE8F88F6D49814211DD6D498142D8BF8E
:102FA0004FF0FF366DDD20462946FFF777F90428FC
:102FB00008BFFFF7F7F920462946BDE8F88F6549B5
:102FC000654F25F00045814233DD6449814219DDBA
:102FD000002632464FF0804320462946FDF7D8F9B7
:102FE00080468A46012220462946FDF7D0FC002271
:102FF0003B46FDF76EFA42465346FDF7E2FA0446B9
:103000000D463EE001260022BA463B4620462946B0
:10301000FDF7BEF980460F4600225346204629465A
:10302000FDF757FA42463B46FDF7CBFA04460D46FC
:1030300027E04B4981421BDDDFF828A10226002250
:10304000534620462946FDF74AFA00223B46FDF743
:103050009FF980460F460022534620462946FDF739
:1030600038FA42463B46FDF7ACFA04460D4608E006
:10307000032622462B4600203B49FDF7A2FA0446D0
:103080000D4622462B4610461946FDF728FA8B4678
:10309000824602460B46FDF722FA074602463348AF
:1030A00088460B4606217844FFF71CF952465B46DA
:1030B000FDF715FA82462E488B463A4643460521CF
:1030C0007844FFF70FF93A464346FDF708FA0246FF
:1030D0000B46002E504659460CDAFDF759F92246A8
:1030E0002B46FDF7FCF901B022462B46BDE8F04F18
:1030F000FDF7F2B9FDF74CF922462B46FDF7EFF943
:103100001C4A7A4402EBC603D3E90023FDF7E1F938
:1031100022462B46FDF7DDF9174A7A4402EBC60337
:10312000D3E90023FDF7D8F9009A002AB8BF81F04F
:103130000041BDE8F88F0000000010440000F07F5F
:10314000182D4454FB21F93FFB21F9BF0000DC3F5F
:103150000000203E0000F33F0000F03F0000E63F8B
:10316000008003400000F83F0000F0BF5E2E00002A
:103170001C2E0000BA2D0000822D00002DE9F04D1C
:103180009446CCF1000423F000464CEA0404594F65
:1031900046EAD4749A46884621F00042BC4206D8DA
:1031A000454240EA050442EAD474BC4204D9BDE871
:1031B000F04D6246FFF7EEB8AAF14055A5F17F65E4
:1031C00055EA0C040BD0022404EAAA744A4DDFF835
:1031D0002CE144EAD87452EA000B04D00CE0BDE8BC
:1031E000F04DFFF7BBBE002C14BF012CBDE8F08DE5
:1031F000022C30D0032C32D056EA0C0B0AD0BE423F
:1032000020D1BA4209D126F0804622F080423346CE
:10321000114617E000291ADB25E0DFF8E4B0FB4493
:10322000002C04BFDBE90001BDE8F08D012C02BFDA
:10323000DBE9000181F00041BDE8F08D022C0AD0ED
:10324000032C0CD0BA4212D1B8F1000F0BDA2A4885
:103250002C49BDE8F08D28462B49BDE8F08D284665
:103260007146BDE8F08D24482849BDE8F08D921BD9
:1032700012153C2AC4BF204F244E10DCBAF1000FB7
:10328000BEBF12F13C0F00273E4608DB6246FDF749
:1032900098F921F00041FFF761FE07460E4694B110
:1032A000012C08BF86F000460DD0194A194B022C9C
:1032B0003846314615D0FDF70CF92A46BDE8F04DE9
:1032C000114BFDF706B90022134638463146FDF78B
:1032D0008DFB04BF0220FFF77DF838463146BDE87C
:1032E000F08DFDF7F6F82A46BDE8F04D064BFDF7E8
:1032F000F3B800000000F07F182D4454FB2109C0F2
:10330000162D0000FB21F9BFFB210940FB21F93FED
:10331000075C143326A6A13C08B560B120208DF8C7
:10332000000028208DF8010030208DF802003820A0
:103330008DF8030004E0A32204216846FCF735FF62
:103340006A46042140F69E2001F094FE01F052FBF3
:1033500008BD00003EB5044602208DF80000CA20DA
:103360008DF80100E3208DF8020009208DF803009C
:103370006A460421682001F07DFEA3208DF800003C
:10338000610609D5C0218DF80110C8218DF8021001
:10339000C2218DF8031005E08DF801008DF80200C0
:1033A0008DF8030014F4C07F09D0C4218DF80410F7
:1033B000CC218DF80510C6218DF8061005E08DF89A
:1033C00004008DF805008DF806008DF808008DF8D2
:1033D00007008DF809006A460A2140F6A72001F08F
:1033E00049FEA0074FF0D80503D020208DF800003B
:1033F00001E08DF800506A46012140F6B62001F048
:1034000039FEA00601D5012000E0002000F08EF872
:1034100014F4C07F1ED0E0050AD5B2208DF800005C
:103420008B208DF80100B6208DF802009B2009E06A
:10343000B0208DF8000080208DF80100B4208DF8B8
:10344000020090208DF803006A46042140F6A22075
:1034500001F010FEE1074FF40B6022D0F8218DF847
:1034600000106A46012101F005FEFA21072000F054
:1034700049FB072000F014FB012000F031FB642021
:1034800000F0D4FB4FF4FA7000F0E0FBC8212548AF
:1034900000F0CEFA282000F0E3FA0A2000F0F0FA5B
:1034A00005E08DF800506A46012101F0E3FDA00718
:1034B00003D5D9208DF8000001E08DF800506A4650
:1034C000012140F23D7001F0D5FD600701D50120DA
:1034D00000E0002000F048F8E00601D5012000E0FF
:1034E0000020FFF719FF104D44F00800688101F03B
:1034F00081FA0020A873600601D50620A87314F491
:10350000C07F02D0A87B801DA87314F0140F02D0D6
:10351000A87B1030A873A00702D0A87B001DA87359
:1035200000203EBD09E3CA02300100200EB54FF471
:10353000976310B106A107C901E008A207CA8DE888
:1035400007006A460921184601F094FD0EBD0000EF
:10355000B8AAB38DB4980D355D000000B8AAAAAA28
:10356000B088C3C5C700000008B560B1C0208DF8A1
:103570000000C2208DF80100C4208DF80200C62092
:103580008DF8030004E08B2204216846FCF70DFE51
:103590006A46042140F6982001F06CFD01F02AFAF9
:1035A00008BD0000C8234FF48062024940F6F6309F
:1035B00001F002B9545200082DE9FF4F89B01746B7
:1035C000DDE916520024544E884681462C80A246DE
:1035D000B07B694601F09CF94FF0FF3B18B15846AB
:1035E0000DB0BDE8F08F708910F0140F4CD0BDF80D
:1035F00000109DF8022049BA090441EA02239DF80F
:1036000003100B433B60BDF804109DF8062049BA37
:10361000090441EA02229DF807101B140A437A604C
:10362000BDF808109DF80A4049BA090441EA04218E
:103630009DF80B4012142143B960BDF80C409DF871
:103640000EC064BA240444EA0C2C9DF80F400914FF
:103650004CEA040CC7F80CC04FEA2C475B434943C3
:1036600002FB023207FB071111441024A1F1706123
:10367000B1F1007F04D901F0BDF9A5F800A0AEE7D3
:10368000298841F4807129804206694611D50A19BA
:10369000A41D13885BBAA8F8003053885BBAA8F859
:1036A0000230928852BAA8F804202A8842F0080210
:1036B0002A8010F4C07F11D00A19A41D13885BBAA8
:1036C000A9F8003053885BBAA9F80230928852BA40
:1036D000A9F804202A8842F070022A80800716D0B8
:1036E0000C44E07800F0C00500F03F016078C007AE
:1036F00006D0C80801F007013268491C02B19047A2
:103700006078000703D5716809B1A80988470C984B
:1037100000F08CFD002063E7300100202DE9FF411F
:10372000044603A800F0FEFEBDF80C00410CC303E4
:103730002F48008900F0030254F82250420700D5B8
:103740006D42C0F3C102860654F8222000D55242D1
:10375000C0F38116C00554F8264000D56442A5FB8D
:103760000367E81700FB037005FB0100850045EACD
:103770009670A2FB0367D51705FB037502FB015288
:10378000950045EA9672A4FB0367E51705FB0373F2
:1037900004FB01318B0043EA9671030E8DF8003073
:1037A000030C8DF80130030A8DF802308DF8030008
:1037B000100E8DF80400100C8DF80500100A8DF81D
:1037C0000600080E8DF80800080C8DF80900080A9C
:1037D0008DF80A008DF807208DF80B106A460C2131
:1037E0004FF4257001F046FC04B0BDE8F081000004
:1037F0003001002030B5044613A285B007CA8DE819
:1038000007004FF0FF35C82C16D8C820B0FBF4F1E4
:10381000491E080A8DF80C008DF80D1003AA02212C
:1038200040F2162001F026FC30B96A460C2140F621
:10383000C12001F01FFC10B1284605B030BD05487D
:1038400084810020F9E70000FEF2ABC4AAF1DFDFBB
:10385000BBAFDFDF30010020F8B53049098901F046
:10386000030250F822404A0700D56442C1F3C10266
:103870008B0650F8222000D55242C1F3811350F834
:103880002330C80500D55B42254984FB01408500F3
:1038900045EA947082FB0142A40F44EA820483FB50
:1038A0000121950F45EA8105010E8DF80010010CEC
:1038B0008DF80110010A8DF802108DF803006A4698
:1038C00004214FF4747001F0D5FB4FF0FF3688B936
:1038D000200E8DF80000200C8DF80100200A8DF8D4
:1038E00002008DF803406A4604214FF4757001F020
:1038F000C1FB08B13046F8BD280E8DF80000280C39
:103900008DF80100280A8DF802008DF803506A46F0
:1039100004214FF4767001F0ADFBF8BD30010020BA
:1039200009E3CA022DE9FF4104463CA004F0030369
:10393000006802903AA0006803903AA006683AA096
:10394000056802A8C15C8DF80010C4F3C101425C97
:103950008DF80120C4F38112805C8DF8020003A869
:10396000C35C8DF80430415C8DF80510805C8DF8E7
:1039700006006A46032140F2264001F07BFB4FF02F
:10398000FF37E0BB01AA032140F22A4001F072FB9D
:10399000A8BBCDE9006560070BD59DF8000040F09D
:1039A00001008DF800009DF8040040F001008DF842
:1039B0000400A0060BD59DF8010040F001008DF831
:1039C00001009DF8050040F001008DF80500E005BC
:1039D0000BD59DF8020040F001008DF802009DF823
:1039E000060040F001008DF806006A4603214FF4FE
:1039F000886001F03FFB10B901AA032100E004E058
:103A000040F2314001F036FB18B1384604B0BDE851
:103A1000F081064804810020F8E700004CCD6C00DE
:103A20000CC92C0036567600264666003001002070
:103A30004FF47A7290FBF2F008B54843010E8DF80E
:103A40000010010C8DF80110010A8DF802108DF89C
:103A500003006A4604214FF4AE7001F00BFB08BD71
:103A60000521B0FBF1F008B5010A8DF800108DF8C2
:103A700001006A4602214FF4AD7001F0FBFA08BD67
:103A80000521B0FBF1F008B5010A8DF800108DF8A2
:103A900001006A4602214FF4AC7001F0EBFA08BD58
:103AA00008B500218DF80010C10702D030218DF833
:103AB0000010810705D59DF8001041F00C018DF82C
:103AC0000010400705D59DF8000040F003008DF878
:103AD00000006A4601214FF4A47001F0CBFA08BD42
:103AE00008B560B1042800D90420401E8DF80000FC
:103AF0006A46012140F24F1001F0BCFA08BD0120D6
:103B0000F3E700002DE9FC41054640074FF0FF3682
:103B10007CD0B1F5C86F79D80846FCF7CAFD3E499C
:103B2000FCF7ECFB074601A800F0DEFC9DF8040062
:103B3000022806D004280DD008282ED0102865D1E0
:103B400034E00E213846FCF717FCFCF7E1FD84B2A7
:103B5000324907E00D213846FCF70EFCFCF7D8FD92
:103B60002F4984B23846FCF797FBFCF7D1FD210AB8
:103B70008DF8001080B28DF80140010A8DF8021016
:103B80008DF80300E8076C4620D0224602214FF44E
:103B9000EA7001F06FFAC8BB11E00C213846FCF75F
:103BA000EBFBFCF7B5FD84B21E49DBE70B21384681
:103BB000FCF7E2FBFCF7ACFD84B21B49D2E7A21C88
:103BC00002214FF4927001F055FAF8B9A8070DD50B
:103BD0006A4602214FF4EC7001F04CFAB0B9A21C15
:103BE00002214FF4947001F045FA78B9680710D5B6
:103BF0006A4602214FF4EE7001F03CFA30B9A21C83
:103C000002214FF4967001F035FA10B13046BDE84C
:103C1000FC810020FBE70000000048430000404614
:103C20000000C045000040450000C0440521B0FB35
:103C3000F1F008B5010A8DF800108DF801006A4610
:103C400002214FF4EF7001F015FA08BD0521B0FB19
:103C5000F1F008B5010A8DF800108DF801006A46F0
:103C600002214FF4ED7001F005FA08BD13B54FF0D5
:103C7000FF33012269460248FDF7D4FD00981CBDC0
:103C8000EC0000202DE9FE430646264801AB042245
:103C900040680D210078FDF7FBFF10B10720BDE85B
:103CA000FE839DF804101C2000EAD1029DF8071045
:103CB000DFF87490C1F301131A438DF800209DF8CA
:103CC0000520C1F3810300EAD2021A438DF80120D6
:103CD0009DF8062001F0030100EAD2000843002409
:103CE000124F8DF80200A0466D46285D10B146F8CF
:103CF00024900AE046F824800DE000BF56F8240026
:103D00003946FCF7C9FA46F82400285D401E10F039
:103D1000FF002855F2D1641CE4B2032CE5D3002047
:103D2000BDE70000100000207B14AE3E1D5A843F0A
:103D30002DE9FE4F05460120C14E8DF800004FF0E1
:103D400000088DF8018030680C461746817C706849
:103D50006B4602220078FEF728F84FF0FF3A002861
:103D60007AD1C820FCF7DAFE8DF8008030686B4607
:103D70000122C17B70680078FEF717F80028EFD1A8
:103D800030686B460122417970680078FEF70DF8C3
:103D90000028E5D130686B460122817C706800788C
:103DA000FEF703F80028DBD130686B460122C17DA5
:103DB00070680078FDF7F9FF0028D1D130686B46B4
:103DC0000122017970680078FDF7EFFF0028C7D164
:103DD0004FF00C098DF8009030686B460122017994
:103DE00070680078FDF7E1FF002835D10F20FCF75F
:103DF00095FEB06A6B460122407A8DF8000030686B
:103E0000817870680078FDF7D0FF002824D1B06A6F
:103E10006B460122007A8DF80000306841787068A6
:103E20000078FDF7C2FF002873D1B06A807A0FB125
:103E300040F0E0008DF8000030686B460122817987
:103E400070680078FDF7B1FF002862D12FB1B06A29
:103E5000C07A40F0E00001E04AE018208DF8000050
:103E600030686B460122C17970680078FDF79DFFCC
:103E7000F0BB17B1C820FCF751FE40208DF80000C0
:103E800030686B460122017970680078FDF78DFF7C
:103E900070BB78208DF8000030686B4601224179B4
:103EA00070680078FDF781FF10BB3220FCF736FE0A
:103EB0008DF80080306847466B4641797068012272
:103EC0000078FDF772FF98B931687068B046897A5A
:103ED00000786B460222FDF7DBFE48B9BDF8000012
:103EE000AF6040BAB0FBF9F06F60C6B22F6000E07F
:103EF0000FE0A76067602760002739E0D8F800105E
:103F0000D8F804006B46C97A00780C22FDF7C0FE91
:103F100010B15046BDE8FE8FBDF80000236840BADE
:103F200000B2BDF80210BDF804201844206049BA60
:103F3000606809B20844606052BAA06812B21044C6
:103F4000A060BDF806002B6840BA01B2BDF80800B9
:103F5000BDF80A201944296040BA696800B20844D3
:103F6000686052BAA86812B210447F1CFFB2A86001
:103F7000B742C3D328688322C117090441EA10411C
:103F800000040023FCF7D0F832460023FCF7CCF8FD
:103F9000286068688322C117090441EA10410004BF
:103FA0000023FCF7C1F832460023FCF7BDF8686037
:103FB000A8688322C117090441EA104100040023C4
:103FC000FCF7B2F832460023FCF7AEF8A860206890
:103FD0004FF40065C117090441EA104100042A4664
:103FE0000023FCF7A1F832460023FCF79DF820607F
:103FF00060682A46C117090441EA10410004002301
:10400000FCF792F832460023FCF78EF86060A06857
:104010002A46C117090441EA104100040023FCF7B5
:1040200083F832460023FCF77FF8A060002802DD09
:10403000A0F5803001E000F58030A060002069E745
:10404000100000202DE9F84F81462E4888460025B3
:1040500040686B46032200780D21FDF719FE10B170
:104060000720BDE8F88F9DF80000002400F01F0035
:104070008DF800009DF801006FF00F0B00F01F009D
:104080008DF801009DF802006E4600F01F008DF8CB
:1040900002004FF0010A00BF59F8241058F824001C
:1040A000081A00D54042FCF7FBFA5946FCF764F9C0
:1040B0000746305DC0B1144802E01449FCF7ECF843
:1040C000315D491E11F0FF013155F6D101463846E8
:1040D000FCF714F94FF07E51FCF7D8F80C4920F0AA
:1040E0000040884205DC07E00A483844B0F1D97F37
:1040F00002D90AFA04F00543641C032CCCDB2846E1
:10410000AFE70000100000200000C84154E3853FE5
:10411000295C0F3E0000E0BE00B5024600F00DF83D
:104120000346D01C00F009F843EAC003901D00F0DC
:1041300004F843EA801080B200BD90F90010002915
:1041400002DD4FF00000704702DA4FF004007047C4
:1041500090F90110002902DD4FF00100704702DAEA
:104160004FF00500704790F90200002802DD4FF083
:104170000200704702DA4FF0060070474FF0070068
:10418000704700008EB0FCF7CDFEFDF7E7FEFDF7AF
:1041900035FEFDF771FEFDF74FFEFDF7BDFEFDF7A5
:1041A0001FFD00F04FF900F043F817A0FEF766F886
:1041B0000520FCF7B3FC06AA05A904A800F074F8D2
:1041C0000028F8D109AA08A907A8FDF7B1FC0CAA94
:1041D0000BA90AA8FDF7C5FCFDF7DCFC0698FCF767
:1041E000ABFA06460F460498FCF7A6FA04460D46BD
:1041F0000598FCF7A1FA8DE8F00002460B4604A0F2
:10420000FEF73CF8D4E70000696E69740D0A0000FF
:10421000583A252E31662020593A252E3166202025
:104220005A3A252E3166200A20000000704700000F
:10423000074940F2F3100860054900200831086082
:10424000091D0860091D0860091D0860704700000D
:104250002C0400402DE9F041124C20F00101002512
:1042600094F8240010B10020BDE8F081A07A4FF04E
:10427000FF3668B10840277C2074884200D035465C
:1042800041B1012000F060FF00F0B4FB38B12774A9
:104290003046E9E7207D00B1012000F055FF2846B7
:1042A000E2E70000100000202DE9F74F8EB00CA9C6
:1042B00002A8CDE900010BAB03AA09A907A8FFF7E3
:1042C0007BF918B1012011B0BDE8F08FBDF80800EE
:1042D000C0057DD50398FCF7E3F96FF01D04214676
:1042E000FCF74AF882460498FCF7DAF92146FCF715
:1042F00043F881460598FCF7D3F92146FCF73CF8D2
:1043000080460698FCF7CCF92146FCF735F80546BF
:1043100001215046FCF730F806464146FBF7BCFF4A
:1043200004464FF040414846FBF7B6FF0746294692
:10433000FBF7B2FF2146FBF757FFFCF7FDF9FEF74D
:10434000D5FC4FF0663B5A463D4BFCF7C8F8FCF7EE
:1043500006FA0E99086001214046FCF70DF8414627
:104360000090FBF799FF044638464946FBF794FF57
:104370002146FBF78BFF4FF07E51FBF735FFFCF733
:10438000DBF907460C4630464946FBF785FF0646F3
:1043900029460098FBF780FF3146FBF725FFFCF725
:1043A000CBF93A462346FEF7E9FE5A46244BFCF782
:1043B00096F8FCF7D4F90F99086029460846FBF7F0
:1043C0006BFF074641460846FBF766FF064600E0DE
:1043D00034E049460846FBF75FFF0446514608466D
:1043E000FBF75AFF2146FBF7FFFE3146FBF74EFF76
:1043F0003946FBF74BFFFCF79FF906460C4629466A
:104400005046FBF749FF054641464846FBF744FF47
:104410002946FBF7E9FE0121FBF7AEFFFCF78CF91B
:1044200032462346FEF7AAFE5A46054BFCF757F8DC
:10443000FCF795F910990860002044E7022042E754
:1044400066A64C4010B5FDF771FA00F0F1F808B11E
:104450000A2010BD782000F0B1FD10F0FF0F01D050
:10446000012010BD7820FFF7F5FE10F0FF0F01D0FE
:10447000022010BD642000F061FD10F0FF0F01D09C
:10448000032010BDFFF78EF810F0FF0F01D00420BD
:1044900010BD1448FFF740FEFFF744FA10F0FF0F7D
:1044A00001D0052010BD40F27310FEF753FF10F04D
:1044B000FF0F01D0062010BD6420FFF79BF910F01C
:1044C000FF0F01D0072010BD00F0FEFD08B108204D
:1044D00010BD012000F058FC10F0FF00F8D00920BA
:1044E00010BD00003C0000200D494A7A42B1012A6B
:1044F00008D0022A0FD0032A0FD04FF0FF307047A8
:10450000022200E004220270C97C11B11106C90D1B
:104510000170002070470822F5E71022F3E7000041
:10452000100000200F494A7A42B1012A09D0022A1C
:1045300011D0032A12D04FF0FF3070474FF4804261
:1045400001E041F69C720280C97C11B1C2F34E01B8
:104550000180002070474FF48052F4E74FF400626E
:10456000F1E70000100000200B49097A39B1012958
:1045700007D002290AD003290BD0002103E0FA2139
:1045800001E04FF4FA710180002070474FF47A7116
:10459000F9E74FF4FA61F6E7100000200A49097ABA
:1045A00041B1012908D002290AD003290AD04FF0CD
:1045B000FF307047054900E0054901600020704761
:1045C0000449FAE70449F8E710000020000003431B
:1045D0000000834233330342333383410C49C97AA9
:1045E000072913D2DFE801F01204060A0C0E1000AE
:1045F000BC2100E062210180002070472A21FAE7F7
:104600001421F8E70A21F6E70521F4E70021F2E793
:1046100010000020054991F8242012B14FF0FF301E
:104620007047C989018000207047000010000020F9
:104630002DE9FC414C4C80208DF8000020686B4631
:104640000122817C60680078FDF7AFFB4FF0FF37F7
:10465000002832D16420FCF761FA00258DF8005063
:1046600020686B460122817C60680078FDF79DFB25
:10467000002870D120686B460622817D6068007832
:10468000FDF706FB002866D19DF805009DF8031094
:10469000C007400F01F0010140EA41019DF801000F
:1046A0004FF0010600F00100014309D0012905D0B7
:1046B000022915D02DA0FDF7E1FD4CE0E67410E0D5
:1046C00020686B460122C17860680078FDF7E0FA47
:1046D00040BB9DF8000010F00F0020D0042822D02D
:1046E000E574FF2004F80A0F4FF6FF7104F8020C7E
:1046F00004F8010C6070A180A0712072A67026766B
:104700006576E572A572E56025616561A576E57659
:10471000A5834FF4FA6000F073FB18B907E01D4859
:10472000FDF7ACFD17E01CA0FDF7A8FDC6E70220D1
:1047300000F088FA78B92A2000F0CAFB58B9322074
:1047400000F0FCFB38B90020FFF784FD18B9002009
:1047500000F0ACFA10B13846BDE8FC81002000F052
:104760002DFC0020F8E7000010000020556E737546
:1047700070706F7274656420736F667477617265B0
:104780002070726F64756374207265762025642EC4
:104790000A000000405F000848616C662073656E87
:1047A0007369746976697479207061727420666FB8
:1047B000756E642E0A0000002DE9FF4FDFF894802B
:1047C000064685B098F8250015460F464FF0FF398C
:1047D000B0BBAFB3002420E0301B102800DD102058
:1047E00080B283463A1901469246204600F042FCC8
:1047F00030BB6A465946204600F0D2F800BB50460E
:104800005A466946FBF7E3FC20B16FF0010009B09E
:10481000BDE8F08F04EB0B0084B2B442DCD3280A6D
:104820008DF810008DF81150D8F80000444604AB04
:10483000817ED8F8040002220078FDF7B6FA08B1AC
:104840004846E4E7012084F825000898E084002029
:10485000DDE70000100000202DE9F84305464FF089
:10486000FF39282844D80727284C00267DB101208D
:1048700000F0FCFA20208DF800004FF00108012D17
:1048800017D0052D18D88DF8018005201FE00020D5
:1048900000F0ECFA8DF800608DF8017020686B462E
:1048A0000222817C60680078FDF77FFA00BB2675E4
:1048B00029E08DF80160E8E7142D04D802208DF876
:1048C00001000A2003E003208DF80100142000F00D
:1048D000FFFA9DF801006B4607EB80108DF8010090
:1048E00020680222817C60680078FDF75EFA10B1D2
:1048F0004846BDE8F8830820A072267384F8148027
:104900000020FFF7A7FC0020F3E7000010000020C4
:104910002DE9F843214C0646174694F824008946B1
:104920004FF0FF3890B3A07A80B320686B46022224
:10493000817A60680078FDF7ABF938BBBDF80000FC
:1049400045BAB54202D2002038701FE06068418845
:10495000B5EB510F11D9216800786B46497C0122D3
:10496000FDF796F990B99DF80000C00605D500F056
:1049700041F86FF00100BDE8F8832068F2B24B46C1
:10498000C17A60680078FDF783F908B14046F2E724
:10499000B5FBF6F0401E38700020ECE71000002058
:1049A000F8B516000D464FF0FF371FD0104CA17A16
:1049B000E1B1010A8DF80010C0B28DF80100411973
:1049C00060684289914211D8216800786B46097E5F
:1049D0000222FDF7EAF948B92068EAB23346417D80
:1049E00060680078FDF754F9002800D03846F8BD1B
:1049F00010000020F8B5564C4FF0FF36A07A002882
:104A00007DD000258DF8005020686B460122C17BC7
:104A100060680078FDF7C9F9002870D120686B46FE
:104A20000122417960680078FDF7BFF9002866D15E
:104A300020686B460122017960680078FDF7B5F9BE
:104A400000285CD194F82400E0B30C208DF800001D
:104A500020686B460122017960680078FDF7A5F9AE
:104A6000002872D13220FCF759F8C0208DF80000E0
:104A7000A07AC00702D0E0208DF8000020686B46C5
:104A80000122017960680078FDF78FF900285CD178
:104A9000607C18B102208DF8000001E08DF8005014
:104AA00020686B460122C17B60680078FDF77DF9C4
:104AB00028BB8DF8005020686B4601224179606860
:104AC00000783EE0FFE704208DF8000020686B4688
:104AD0000122017960680078FDF767F978B9A07C58
:104AE00090B9A07AC0070FD05FF060008DF8000089
:104AF00020686B46012201796068007800E024E0BC
:104B0000FDF753F908BB01E04020EFE73220FCF746
:104B100005F8607C18B101208DF8000001E08DF8E7
:104B2000005020686B460122C17B60680078FDF769
:104B30003CF950B92068064B012241796068103376
:104B40000078FDF732F9002800D03046F8BD0000AB
:104B5000100000202DE9F047394C82468AB094F8C5
:104B600024000F4620B1002000F00EF9012600E0DD
:104B7000002607A8FFF7F8FC06A8FFF7B5FC09A870
:104B8000FFF72CFD08A8FFF745FD94F80A9094F86C
:104B900010800025002239465046FFF7C9F810B1B1
:104BA0006D1C022DF6DB022D1AD00025012203A96F
:104BB0006846FFF7BDF810B16D1C022DF6DB022D23
:104BC0000ED003A93846FEF751F8C7B269465046E1
:104BD000FFF738FA10F0FF0F4FF0000502D002E0A7
:104BE000002503E001250FB945F00205FF202072E2
:104BF0006072E0724FF6FF71E181A07220740120B3
:104C00002073BDF81C0000F0FBF89DF8180000F0C0
:104C100019F8BDF8240000F05BF9BDF8200000F0A1
:104C20008DF9484600F0CAF94046FFF713FB16B16C
:104C3000012000F0A9F80AB02846BDE8F08700007E
:104C40001000002038B5184C4FF0FF35A17A19B389
:104C5000022806D0042806D008280ED010281BD120
:104C60000DE0002000E008208DF80000607A9DF83B
:104C70000010B0EBD10F04D005E01020F4E71820AD
:104C8000F2E7002038BD20686B460122C1796068D8
:104C90000078FDF78AF808B1284638BD9DF8000075
:104CA000C0086072EDE7000010000020F8B5354C38
:104CB0000546A07CA84201D10020F8BD31484FF044
:104CC000FF366B46D0E900104FF0010209790078F9
:104CD00035B3FCF7DDFF70BB9DF800006B4620F09C
:104CE00020008DF8000020680122017960680078BA
:104CF000FDF75BF8F8B90320FBF710FF02208DF8F1
:104D0000000094F8220078B382202BE020686B46E4
:104D10000122017D60680078FDF747F858B92EE060
:104D2000FCF7B6FF38B9A07AC0079DF8000003D0A1
:104D300040F0200002E00CE020F020008DF80000A0
:104D400020686B460122017960680078FDF72DF834
:104D500008B13046F8BD0320FBF7E0FE94F82200CE
:104D600000B180208DF8000094F823000028CDD0F9
:104D70009DF8000040F030008DF80000C6E7A574F3
:104D80009AE700001000002038B51C4C94F824105D
:104D900081421DD0002500B394F82500D0B1002039
:104DA00000F0D2F90020FFF781FFE08C00F0C6F898
:104DB0008DF8005060686B46012200782321FCF7D3
:104DC000F4FF012084F8240000F0BEF9FFF712FE82
:104DD000002038BD4FF0FF3038BD002000F0B4F99E
:104DE000207C8DF8000060686B460122007823214A
:104DF000FCF7DBFF84F82450E8E7000010000020F7
:104E000038B5194C4FF0FF35A17A31B3FA2809D0E3
:104E1000B0F5FA7F08D0B0F57A7F0FD0B0F5FA6F11
:104E20001BD10DE0002000E008208DF80000207A62
:104E30009DF80010B0EBD10F04D005E01020F4E78E
:104E40001820F2E7002038BD20686B4601228179E6
:104E500060680078FCF7A9FF08B1284638BD9DF8C6
:104E60000000C0082072EDE71000002038B5174C94
:104E7000054694F82300A84201D1002038BD0DB1A9
:104E8000302000E000208DF80000A07C28B19DF8C3
:104E9000000040F002008DF8000094F8220028B1D4
:104EA0009DF8000040F080008DF8000020686B46FF
:104EB0000122017D60680078FCF777FF10B14FF0A8
:104EC000FF3038BD84F82350D7E7000010000020E1
:104ED00038B5194C4FF0FF35A17A31B3BC2801D356
:104EE000012010E0622801D302200CE02A2801D31F
:104EF000032008E0142801D3042004E00A2801D389
:104F0000052000E006208DF80000E07A9DF80010F2
:104F1000884201D1002038BD20686B46012281788B
:104F200060680078FCF741FF08B1284638BD9DF85D
:104F30000000E072EEE7000010000020F8B51E4D02
:104F400004464FF0FF37A87A48B395F8240030BBE9
:104F5000287D4FF47A7648B164B1282C03D8E0B2AA
:104F6000FFF77AFC26E00020FFF776FC042C05D240
:104F7000042406E00020FFF76FFCF9E7B44200D9F3
:104F80003446B6FBF4F0401E8DF8000028686B46EE
:104F90000122417868680078FCF707FF08B13846BD
:104FA000F8BD9DF80000401CB6FBF0F0E881400819
:104FB000FFF78EFF0020F8BD10000020F8B5054671
:104FC00010F0700F4FF0000601D0012004E015B181
:104FD0008DF8006002E040208DF80000244C6B4604
:104FE00001222068817C60680078FCF7DEFE4FF0CB
:104FF000FF3760BB9DF8000020F0400020738DF863
:105000000060680602D404208DF80000A80605D4CC
:105010009DF8000040F002008DF80000E80605D47D
:105020009DF8000040F001008DF80000280705D42D
:105030009DF8000040F038008DF8000020686B46B5
:105040000122C17C60680078FCF7AFFE10B1A67247
:105050003846F8BD25B1082D02D00020FFF706FF25
:10506000A57226753220FBF759FD0020F8BD00001F
:1050700010000020F8B516000D464FF0FF371FD086
:10508000104CA17AE1B1010A8DF80010C0B28DF880
:105090000100411960684289914211D82168007865
:1050A0006B46097E0222FCF780FE48B92068EAB20E
:1050B0003346417D60680078FCF777FE002800D019
:1050C0003846F8BD1000002010B588B0694604A825
:1050D000FFF740FD032802D0012008B010BD07A84B
:1050E000FFF75CFA0498FBF7DBFA07990C46FBF72D
:1050F000D3F8FBF7F4FA04900598FBF7D1FA2146B0
:10510000FBF7CAF8FBF7EBFA05900698FBF7C8FA2D
:105110002146FBF7C1F8FBF7E2FA069004A8FEF778
:105120009BFB03A8FFF7FEF9BDF80C000099414373
:1051300000910199414301910299414368460291CE
:10514000FEF7ECFA0020C8E7F8B5144C01462246F9
:1051500094F82460D2E9000200235D1E56B179B1B3
:10516000022111E0C17B10786B460122FCF71DFE85
:1051700068B90EE0A67A56B111B1617C61B902E05E
:105180008DF80030EEE701218DF80010EAE728469F
:10519000F8BD9DF8000060740020F8BD10000020EC
:1051A0002DE9F04106460F46FBF762FC041E0D4652
:1051B00018BF0120284320F00040C0F17F6000F1BB
:1051C000E040C00F0ED0301C18BF0120384320F043
:1051D0000040C0F17F6000F1E040C00F04BF01203B
:1051E000FDF7F8F820462946BDE8F08100000000F0
:1051F0000000000001020304060708090000000087
:105200000102030475191A0C6A231B1C1F207274F7
:10521000433B4138393A6B6C376F06246D6E700032
:105220006800000476005401F7FD000183000000CF
:1052300000080000000100183200050000002041B5
:105240000000D242295C0F3E9A99993E3333733F56
:10525000295C0F3E000070000000002400000002E6
:105260000003000000650054FFEF0000FA80000B0F
:1052700012820001030C30C30E8C8CE914D540025D
:1052800013710F8E3883F8833000F883258EF883EE
:105290003000F883FFFFFFFF0FFEA9D624000400B3
:1052A0001A8279A10000003CFFFF000000100000FE
:1052B00038836FA2003E03304000000002CAE309B9
:1052C0003E800000200000000000000040000000C0
:1052D00060000000000C0000000C186E0000069238
:1052E0000A16C0DFFFFF0256FD8CD377FFE1C4969C
:1052F000E0C5BEAA00000000FFFF0B2B0000165700
:10530000000003594000000000001DFA00026C1D5F
:10531000000000003FFFDFEB003EB3B6000D227837
:1053200000002F3C00000000001942B5000039A227
:105330000000B365D90E9FC91DCF4C34300000006A
:10534000500000003BB67AE80064000000C800008E
:1053500000000000100000001000FA921000225E11
:10536000000D229F0001000000320000FF460000F7
:1053700063D400001000000004D6000004CC00003C
:1053800004CC00000000107200000040000000008B
:1053900000000000000600020005000700000000F9
:1053A000006400000000000000000005000500642B
:1053B000002000000000000000000000000040008D
:1053C0000000030000000032F8980000FF650000B4
:1053D000830F0000FF9BFC000000000000000000A5
:1053E00000000000000000000000000000000000BD
:1053F00000000000000000000000000000000000AD
:105400000000100040000000000000060000B26A2A
:10541000000200000001FB830068000000D9FC00CE
:105420007CF1FF830000000000650000006403E8D9
:1054300000640028000000250000000016A0000005
:105440000000100000001000002F0000000001F418
:105450000000100000280000FFFF4581FFFFFA72E6
:105460000000000000000000004400050005BAC66E
:10547000004778A2000000010000000000000600C4
:10548000000000140000254D002F706D000005AED7
:10549000000C02D00000000000000000000000002E
:1054A00000000000001B00000000000000000000E1
:1054B0000000000000640000000800000000000080
:1054C00000000000000000000000000000000000DC
:1054D00000000000000000000000000000000000CC
:1054E00000000000000000000000000000000000BC
:1054F00000000000000000000000000000000000AC
:10550000000000000000000000000000000000009B
:1055100000000000001B0000000000000000000070
:10552000000E000E00000AC7000400000000003258
:10553000FFFFFF9C00000B2B000000020000000199
:1055400000000064FFE50000000000000000000013
:105550000000000000000001000000000001000049
:1055600000000000000180000001800000018000B8
:10557000002426D3000000000000000000060010F8
:105580000096003C00000000000000000000000049
:10559000000000000C0A4E68CDCF770950166759FD
:1055A000C619CE82000000000000000000000000CC
:1055B00000000000000000000000000017D7840079
:1055C000030000000000000000000000C7938F9D52
:1055D0001E1B1C190000000000000000000000005D
:1055E0000000000000000000000000000203188519
:1055F0000000400000000003000000030000000065
:10560000000000004000000000000000000000005A
:10561000000000000000000000000000000000008A
:10562000000000000000000000000000000000007A
:105630000000000000000000677DDF7E72902E55A4
:105640004CF6E688000000000000000000000000AA
:1056500000000000D8DCB4B8B0D8B9ABF3F8FAB3A6
:10566000B7BB8E9EAEF132F51BF1B4B8B08097F1A6
:10567000A9DFDFDFAADFDFDFF2AAC5CDC7A90CC92A
:105680002C97F1A989264666B28999A92D557DB036
:10569000B08AA896365676F1BAA3B4B280C0B8A83C
:1056A0009711B28398BAA3F0240844106418B2B9D1
:1056B000B49883F1A329557DBAB5B1A38393F000C3
:1056C0002850F5B2B6AA839328547CF1B9A38293EB
:1056D00061BAA2DADEDFDB819AB9AEF5606870F1FB
:1056E000DABAA2DFD9BAA2FAB9A38292DB31BAA29E
:1056F000D9BAA2F8DF85A4D0C1BBAD83C2C5C7B8F3
:10570000A2DFDFDFBAA0DFDFDFD8D8F1B8AAB38D20
:10571000B4980D355DB2B6BAAF8C96198F9FA70EAF
:10572000161EB49AB8AA872C547CBAA4B08AB69133
:10573000325676B28494A4C808CDD8B8B4B0F199E2
:1057400082A82D557D98A80E161EA22C547C92A4DA
:10575000F02C5078F184A898C4CDFCD80DDBA8FCBF
:105760002DF3D9BAA6F8DABAA6DED8BAB2B68696BA
:10577000A6D0F3C841DAA6C8F8D8B0B4B882A892C7
:10578000F52C548898F135D9F418D8F1A2D0F8F94D
:10579000A884D9C7DFF8F883C5DADF69DF83C1D809
:1057A000F40114F1A8824EA884F311D182F5D992A4
:1057B000289788F109F41C1CD884A8F3C0F9D1D922
:1057C0009782F129F40DD8F3F9F9D1D982F4C20303
:1057D000D8DEDF1AD8F1A2FAF9A88498D9C7DFF881
:1057E000F8F883C7DADF69DFF883C3D8F40114F16E
:1057F00098A8822EA884F311D182F5D99250978867
:10580000F109F41CD884A8F3C0F8F9D1D99782F132
:1058100049F40DD8F3F9F9D1D982F4C403D8DEDF05
:10582000D8F1AD8898CCA809F9D98292A8F57CF175
:10583000883ACF944A6E98DB6931DAADF2DEF9D856
:105840008795A8F221D1DAA5F9F417D9F1AE8ED057
:10585000C0C3AE82C684C3A88595C8A588F2C0F12E
:10586000F4010EF18E9EA8C63E56F554F18872F4EE
:105870000115F19845856EF58E9E0488F142985A7F
:105880008E9E068869F4011CF1981E1108D0F5045B
:10589000F11E970202983625DBF9D985A5F3C1DA06
:1058A00085A5F3DFD88595A8F309DAA5FAD8829201
:1058B000A8F578F1881A849F26889821DAF41DF3D8
:1058C000D8879F39D1AFD9DFDFFBF9F40CF3D8FAD1
:1058D000D0F8DAF9F9D0DFD9F9D8F40BD8F3879FEB
:1058E00039D1AFD9DFDFF41DF3D8FAFCA869F9F993
:1058F000AFD0DADEFAD9F88F9FA8F1CCF398DB4568
:10590000D9AFDFD0F8D8F18F9FA8CAF38809DAAFF2
:105910008FCBF8D8F2AD978D0CD9A5DFF9BAA6F3E5
:10592000FAF412F2D8950DD1D9BAA6F3FADAA5F2A3
:10593000C1BAA6F3DFD8F1BAB2B68696A6D0CAF33A
:1059400049DAA6CBF8D8B0B4B8D8AD84F2C0DFF14C
:105950008FCBC3A8B2B68696C8C1CBC3F3B0B48808
:1059600098A821DB718D9D71859521D9ADF2FAD86A
:105970008597A828D9F408D8F28D29DAF405D9F248
:1059800085A4C2F2D8A88D9401D1D9F411F2D88798
:1059900021D8F40AD8F28498A8C801D1D9F411D832
:1059A000F3A4C8BBAFD0F2DEF8F8F8F8F8F8F8F8CE
:1059B000D8F1B8F6B5B9B08A95A3DE3CA3D9F8D82A
:1059C0005CA3D9F8D87CA3D9F8D8F8F9D1A5D9DF48
:1059D000DAFAD8B18530F7D9DED8F830ADDADED8CA
:1059E000F2B48C99A32D557DA083DFDFDFB591A0A4
:1059F000F629D9FBD8A0FC29D9FAD8A0D051D9F8DA
:105A0000D8FC51D9F9D879D9FBD8A0D0FC79D9FAEA
:105A1000D8A1F9F9F9F9F9A0DADFDFDFD8A1F8F8B0
:105A2000F8F8F8ACDEF8ADDE8393AC2C547CF1A82A
:105A3000DFDFDFF69D2CDAA0DFD9FADB2DF8D8A85E
:105A400050DAA0D0DED9D0F8F8F8DB55F8D8A8782D
:105A5000DAA0D0DFD9D0FAF8F8F8F8DB7DF8D89CD6
:105A6000A88CF530DB38D9D0DEDFA0D0DEDFD8A8B7
:105A700048DB58D9DFD0DEA0DFD0DED8A868DB70E5
:105A8000D9DFDFA0DFDFD8F1A888902C547C98A85C
:105A9000D05C38D1DAF2AE8CDFF9D8B087A8C1C1BA
:105AA000B188A8C6F9F9DA36D8A8F9DA36D8A8F94B
:105AB000DA36D8A8F9DA36D8A8F9DA36D8F78D9DCB
:105AC000ADF818DAF2AEDFD8F7ADFA30D9A4DEF9C6
:105AD000D8F2AEDEFAF983A7D9C3C5C7F1889BA770
