:020000040800F2
:100000009005002005010008272000082519000898
:100010002520000819050008A5240008000000009C
:100020000000000000000000000000002B2000087D
:100030003505000800000000292000082D200008D8
:100040001F0100081F0100081F0100081F01000810
:100050001F0100081F0100081F0100081F01000800
:100060001F0100081F0100081F0100081F010008F0
:100070001F0100081F0100081F0100081F010008E0
:100080001F0100081F0100081F0100081F010008D0
:100090001F0100081F0100081F0100081F010008C0
:1000A0001F0100081F0100081F0100081F010008B0
:1000B0001F0100081F010008000000001F010008C8
:1000C0001F01000800000000000000001F010008E0
:1000D00000000000992400081F0100080000000033
:1000E000370500081F0100081F010008DFF810D0C5
:1000F00000F000FA00480047E9360008AFF300803E
:10010000900500200648804706480047FEE7FEE7C6
:10011000FEE7FEE7FEE7FEE7FEE7FEE7FEE7FEE7B7
:100120008F200008ED0000082DE9F0410024061B97
:10013000254671F1000605DA01240027D0EB0700FF
:1001400067EB0101161E73F1000605DA0027D2EBFA
:100150000702012567EB030300F055F986460E46BA
:1001600017469C46AC4204D00025D0EB050E65EB4B
:10017000010624B10020D2EB000760EB030C7046AF
:1001800031463A466346BDE8F081202A04DB203A36
:1001900021FA02F00021704721FA02F3D040C2F1A7
:1001A00020029140084319467047D2B201E000F89E
:1001B000012B491EFBD270470022F6E710B513460B
:1001C0000A4604461946FFF7F0FF204610BD30B539
:1001D00004460020034600E05B1C934203D2E05C2F
:1001E000CD5C401BF8D030BDF0B480EA0102D40FE2
:1001F0004200B2EB410F02D20246084611464A00C5
:1002000042D0C30DDDB2C1F3C752AD1A202D35DA8D
:10021000C1F3160141F4000204B15242C5F12006B7
:1002200002FA06F12A411044B3EBD05F23D0C4B1E7
:10023000012DA0EBC35009DCF0BC4FF0004202EAF4
:10024000C352DBB200F5000000F026B9400000F117
:10025000807000EBC350A0F1807040EAD17049007B
:1002600009E0490841EAC071A0EBC35000F5000065
:10027000400800EBC350F0BC00F005B96142012218
:1002800002EB4101001BF6E7F0BC704781F0004132
:10029000AAE780F00040A7E780EA010210B502F06B
:1002A0000043400022D04A001FD0010E01EB126132
:1002B000C0F35600C2F3560240F4000042F40002BC
:1002C000A0FB022000047F39140400D0401C50EA37
:1002D000124001D44000491EC2B20C0604EBD010FB
:1002E000401C4008802A02D003E0002010BD20F00E
:1002F0000100002900DA0020184310BD30B480EA64
:10030000010202F0004530F0004221F0004013D01D
:1003100090B1C30DD40DC2F31601C0F31600E41A58
:1003200041F4000140F400027D34914201D3641C89
:1003300000E04900002C02DA30BC002070474FF486
:1003400000000023914201D3891A034340084FEA79
:100350004101F7D151B1914202D14FF0004105E086
:1003600002D24FF0010101E06FF0010103EBC45034
:10037000284430BC00F087B8420005D0C0F3C75213
:100380005242914201DC0020704700EBC15070479F
:10039000C10F80EAE0700844CA079623002100F0EC
:1003A0007BB896230022114600F076B800F0004298
:1003B00020F00040C10DC0F3160040F400007F297A
:1003C00001DA00207047962903DCC1F19601C8408C
:1003D00001E096398840002AF4D04042704720F06E
:1003E0000040C10DC0F3160040F400007F2901DA7F
:1003F00000207047962903DCC1F19601C840704780
:100400009639884070472DE9F05F054600209246F6
:100410009B4688460646814640241BE028464146C6
:1004200047462246FFF7B1FE53465A46C01A91414D
:1004300010D311461846224600F016F82D1A67EB25
:1004400001084F4622460120002100F00DF817EB6D
:1004500000094E41201EA4F10104DFDC484631466C
:100460002A464346BDE8F09F202A04DB203A00FAE2
:1004700002F1002070479140C2F1200320FA03F3FB
:100480001943904070470029A8BF7047401C49009D
:1004900008BF20F00100704710B4B0FA80FC00FAE9
:1004A0000CF050EA010404BF10BC704749B1CCF114
:1004B000200421FA04F411FA0CF118BF01212143A0
:1004C0000843A3EB0C01CB1D4FEA00614FEA10205B
:1004D00042BF002010BC704700EBC35010440029FD
:1004E000A4BF10BC7047401C490008BF20F00100A9
:1004F00010BC7047064C074D06E0E06840F0010371
:1005000094E8070098471034AC42F6D3FFF7F2FDA9
:100510004C5400086C540008FEE7000010B504219C
:10052000034800F077FF4FF4C8708106886310BD60
:10053000A8000020704710B54FF4805000F004F977
:100540004FF4005000F000F94FF4804000F0FCF848
:10055000BDE810404FF4004000F0F6B872B6FEE778
:1005600070B50021154800F055FF00244FF080457C
:1005700004EB840040006863642000F093F8641C7E
:10058000092CF5DB4FF4FA71802004F025F80122E4
:100590000B4D54032146284600F0C7F941F288303C
:1005A00000F080F800222146284600F0BEF9BDE8A0
:1005B00070400021014800F077BF0000A800002033
:1005C0000010014010B590F821100022022905D03A
:1005D0000421816380F82020012010BD01680B6890
:1005E00023F00E030B6001680B6823F001030B601E
:1005F00090F84030C46B012101FA03F3636080F886
:10060000211080F82020104610BD000010B590F891
:1006100021100024022903D00421816301243DE03C
:1006200001680A6822F00E020A6001680A6822F076
:1006300001020A601A4A0168914201D1012121E0B8
:10064000174A1432914201D110211BE0144A28327A
:10065000914201D1891515E0114A3C32914201D1F4
:1006600089140FE00E4A5032914202D14FF480318A
:1006700008E00B4A6432914202D14FF4801101E04C
:100680004FF08071064A083A5160012180F821102C
:10069000002180F82010416B01B18847204610BD31
:1006A0000800024070B5044600F044F90546601C9D
:1006B00002D004480078044400F03CF9401BA042FA
:1006C000FAD370BD0800002070B51B4909680029E5
:1006D00030D04FF480546600A500A04202D103F050
:1006E0006DF808E0B04202D103F036F803E0A8420A
:1006F00001D103F053F82146104C204600F010F9C8
:10070000002817D13146204600F00AF9002811D1FF
:100710002946204600F004F900280BD103F074F8B4
:1007200007A001F0C1FE6420FFF7BCFFBDE87040E8
:1007300003F012B870BD000004000020000C01405E
:100740007361766564000000044910B50A680242CE
:1007500002D00860FFF7B8FF10BD0000140401408C
:100760002DE9F84FDFF89C91002409F1040A0AF101
:10077000040B23460F270BF1040EBBE00125A54017
:100780002A40AA4276D1DFF880C14E68A6EB0C0859
:1007900066452BD00DDC032E34D005DC36B3012E9C
:1007A00019D0022E2FD11BE0112E16D0122E2AD1D5
:1007B00019E0B8F5881F19D006DCB8F5803F15D0D0
:1007C000B8F5801F1FD111E0B8F5001F0ED0B8F5A5
:1007D000041F18D10AE0CB6815E0CB681B1D12E09E
:1007E000CB6808330FE0CB680C330CE08B682BB17F
:1007F000012B4FF0080303D0456104E0042302E01D
:10080000056100E00023FF2A01D8064601E000F15F
:1008100004064FEA840501D9A5F12005D6F8008029
:1008200007FA05FC28EA0C0803FA05F548EA05086A
:10083000C6F800804D68ED005BD5344DAE6946F0DA
:100840000106AE61AD6924F0030605F001050095CF
:100850002F4D06EB050CDCF80850A607360F07FAFB
:1008600006F825EA0805DFF8AC80404503D14FF0D3
:10087000000810E03DE0DFF8A080404502D14FF0D5
:10088000010808E0DFF89480404502D14FF00208EB
:1008900001E04FF0030808FA06F848EA0508CCF82A
:1008A00008804D68D9F80060ED034D4601D5164328
:1008B00000E096432E604D68DAF80060AD035546BF
:1008C00001D5164300E096432E604D68DBF80060CA
:1008D000ED025D4601D5164300E096432E604D685B
:1008E000DEF80060AD02754601D5164300E0964380
:1008F0002E60641C0A6832FA04F57FF43FAFBDE84D
:10090000F88F0000000401400000111000100240A8
:100910000000014000080140000C014000100140AF
:100920008068084000D0012070470AB1016170471B
:100930000904FBE7014880687047000008000020B8
:1009400070B5040025D094F83D00002520B984F846
:100950003C50204600F0B8F8242084F83D00206880
:10096000016821F0010101602068016841F4004143
:1009700001602068016821F40041016000F008FA7C
:100980004D4A6168914201D84C4900E04C49884287
:1009900001D2012070BD4B492368B0FBF1F15E68C4
:1009A00026F03F060E435E606368934206D94FF41B
:1009B000967359434FF47A73B1FBF3F12368491CE2
:1009C0001E6A26F03F06314319626168914210D8D1
:1009D0004900401EB0FBF1F2521CC2F30B02042A84
:1009E00001D2042022E0B0FBF1F0401CC0F30B0068
:1009F0001CE0A268F2B301EBC10303EB0116431E36
:100A0000B3FBF6F35B1C43F480431B0549D092B360
:100A100001EBC10202EB0111401EB0FBF1F0401CE2
:100A2000C0F30B0040F4804040F400402168CA69E4
:100A30004CF6FF739A431043C861D4E90710014391
:100A40002068026822F0C00211430160D4E903016A
:100A500001432068826848F2FF339A431143816062
:100A6000D4E9050108432168CA6822F0FF02104357
:100A7000C86001E00EE016E02068016841F0010165
:100A800001602564202084F83D00256384F83E50F1
:100A9000002070BD01EB4106431EB3FBF6F35B1C67
:100AA000B3E70120C2E701EB4101401EB0FBF1F0CA
:100AB000401CC0F30B00B7E7A086010080841E0035
:100AC00000093D0040420F0010B586B000210091A2
:100AD00001910291039100681249884220D1124C81
:100AE000A06940F00800A061A069694600F0080014
:100AF00004904FF440700090122001900B48FFF7D3
:100B00002FFE0B48416841F0E06141F00201416075
:100B1000E06940F40010E061E06900F40010049026
:100B200006B010BD0054004000100240000C01400F
:100B300000000140024881680278114481607047DA
:100B400008000020074810B5016841F0100101605D
:100B5000032000F075F80F2000F006F800F024F8EC
:100B6000002010BD0020024070B50D4D04464FF42A
:100B70007A712878B1FBF0F00A490968B1FBF0F00E
:100B800000F0ECFA48B9102C07D200222146501E82
:100B900000F036F800206C6070BD012070BD0000D0
:100BA00008000020140000200C4808B5816941F0BD
:100BB00001018161816901F001010091C16941F088
:100BC0008051C161C06900F08050009004484168C4
:100BD00021F0E06141F00071416008BD0010024069
:100BE00000000140002809DB00F01F0201219140B4
:100BF0004009800000F1E020C0F8001170470000BB
:100C0000F0B40E4B1B680C46C3F30223C3F1070577
:100C1000042D00D90425191D072901D2002300E065
:100C2000DB1E012606FA05F1491E214099409E402F
:100C3000761E16403143F0BC01F046BC0CED00E0DE
:100C4000064900F0070208684FF6FF03184040EA23
:100C50000220034A10430860704700000CED00E0DA
:100C60000000FA052DE9F0470F46050061D0434E1C
:100C7000306800F00700B84209D2306820F0070061
:100C800038433060306800F00700B84251D128681E
:100C90003B4C810712D5400703D5606840F4E06003
:100CA00060602878000703D5606840F46050606099
:100CB0006068A96820F0F000084360602878C007E9
:100CC00028D06868012810D02168022810D0890730
:100CD00000292EDA616821F0030101436160FFF70A
:100CE00029FE804641F288390DE021688903EFE74B
:100CF0008901EDE7FFF71EFEA0EB0801494502D987
:100D00000320BDE8F0876068696800F00C00B0EB74
:100D1000810FEFD1306800F00700B8420BD930687E
:100D200020F0070038433060306800F00700B84218
:100D300001D00120E5E72878400705D56068E9681B
:100D400020F4E060084360602878000706D56068FA
:100D5000296920F4605040EAC100606000F038F872
:100D60006168084AC1F30311515CC8400649086034
:100D700006480068FFF7F8FE0020C2E700200240A6
:100D8000001002409A470008140000200C000020C8
:100D90000448054900684968044AC1F30221515CCE
:100DA000C84070471400002000100240AA47000805
:100DB0000448054900684968044AC1F3C221515CEE
:100DC000C84070471400002000100240AA470008E5
:100DD00012A185B00FC98DE80F0014A0144A006855
:100DE00004905168134801F00C03042B10D0082B19
:100DF0000ED1C1F38343C9031DF803000AD551681E
:100E000004AAC1F34041515C0A4A5043B0FBF1F0DF
:100E100005B0704708494843FAE70000020304059B
:100E2000060708090A0B0C0D0E0F10100102000036
:100E30000010024000127A0000093D002DE9F84F31
:100E4000040070D02078C04DC00749D06868C0F356
:100E50008100012807D06868C0F38100022809D109
:100E60006868C00306D52868800339D56068002803
:100E7000E7D035E06068B0F5803F0BD010B1B0F539
:100E8000A02F11D0286820F480302860286820F432
:100E9000802002E0286840F480302860606890B1CB
:100EA000FFF748FD06460AE0286840F480202860E5
:100EB000F0E700BFFFF73EFD801B642873D8286869
:100EC0008003F7D50CE0FFF735FD064605E000BFCF
:100ED000FFF730FD801B6428F0D828688003F7D422
:100EE00020789A4E80074FF001094FF0000839D55D
:100EF000686810F00C0F07D06868C0F38100022802
:100F000009D16868C00306D42868800714D5206911
:100F1000012808D110E02069B0B1C6F80090FFF7B1
:100F200009FD074605E00AE1FFF704FDC01B0228A2
:100F3000C4D828688007F7D52868616920F0F800D0
:100F400040EAC10028600DE0C6F80080FFF7F2FC1F
:100F5000074604E0FFF7EEFCC01B022823D82868F0
:100F60008007F7D4207800072CD57948A169D9B13A
:100F7000C0F80090FFF7DEFC074604E0FFF7DAFC5C
:100F8000C01B02280FD8686A8007F7D571484FF454
:100F9000FA510068B0FBF1F0009000BF0098411ECC
:100FA0000091FAD20EE080E0C0F80080FFF7C2FCAA
:100FB000074604E0FFF7BEFCC01B022875D8686A2C
:100FC0008007F7D42078400760D5E8690027C00083
:100FD00008D4E86940F08050E861E869012700F032
:100FE000805000905C480168C90513D401688346AD
:100FF00041F480710160FFF79DFC824606E000BF6E
:10100000FFF798FCA0EB0A0064284ED8DBF800003C
:10101000C005F5D5E06801280AD008B1052813D02D
:10102000286A20F001002862286A20F0040002E00B
:10103000286A40F001002862E06841F2883B98B1DC
:10104000FFF778FC82460BE0286A40F00400286233
:10105000EEE700BFFFF76EFCA0EB0A0159455AD836
:10106000286A8007F6D50CE0FFF764FC824605E0AD
:10107000FFF760FCA0EB0A0159454CD8286A8007AD
:10108000F6D41FB1E86920F08050E861E06988B3C8
:101090006968C1F38101022944D00228C6F8608042
:1010A00004D0FFF747FC044638E034E0FFF742FC89
:1010B000074604E0FFF73EFCC01B02282BD8286837
:1010C0008001F7D4206AB0F5803F05D16868A16837
:1010D00020F4003008436860D4E9080108436968D7
:1010E00021F4741108436860C6F86090FFF722FC91
:1010F000044606E025E000BFFFF71CFC001B0228A9
:1011000009D828688001F7D51BE000BFFFF712FC63
:10111000001B022802D90320BDE8F88F286880014F
:10112000F4D40EE00128F7D06868226A00F4803118
:10113000914204D1616A00F47010884201D001200C
:10114000EAE70020E8E70000001002400000424209
:1011500080044242140000200070004010B5401E80
:10116000B0F1807F01D3012010BD4FF0E024606119
:101170000F21601701F0A8F90020A061072020616D
:10118000002010BD70B590F83C20012A23D0012426
:1011900080F83C40022280F83D2003685A689D6830
:1011A00022F070060A6832435A600C4B02689A4279
:1011B00005D0B2F1804F02D0094B9A4204D1496860
:1011C00025F080031943916080F83D40002180F8AC
:1011D0003C10084670BD022070BD0000002C01408C
:1011E0000004004070B586B0002100910191029189
:1011F000039100682B4902242B4D2C4EB0F1804FF7
:1012000024D02B4A90421FD1886940F004008861A5
:10121000886900F004000490886940F00800886143
:101220008869694600F008000490C020CDE90004F8
:1012300030460394FFF794FA0320CDE90004694691
:1012400028460394FFF78CFA06B070BD886940F019
:1012500008008861886900F008000490886940F0FF
:10126000040088618869694600F00400049040F633
:101270000840CDE9000428460394FFF771FA4FF4C3
:101280000040CDE90004694630460394FFF768FA50
:101290000848416821F4407141F0E06141F4407137
:1012A0004160D1E700100240000C014000080140FD
:1012B000000400400000014070B5044690F83C0076
:1012C0000D4601280AD0012084F83C0042B1042ACE
:1012D00018D0082A2AD00C2A4DD139E0022070BD3E
:1012E000206800F011FF2068816941F008018161E8
:1012F0002068816921F004018161206881692A697F
:10130000114311E0206800F027FF2068816941F453
:10131000006181612068816921F4806181612068B8
:1013200081692A6941EA0221816124E0206800F094
:101330003FFF2068C16941F00801C1612068C169AF
:1013400021F00401C1612068C1692A69114311E0DB
:10135000206800F059FF2068C16941F40061C16153
:101360002068C16921F48061C1612068C1692A696E
:1013700041EA0221C161002084F83C0070BD10B533
:10138000040003D094F83D0010B107E0012010BD27
:10139000002084F83C00204600F01EF8022084F86B
:1013A0003D00211D206800F073FE012084F84600F6
:1013B00084F83E0084F83F0084F8400084F841003F
:1013C00084F8420084F8430084F8440084F845001F
:1013D00084F83D00002010BD08B501680B48B1F14C
:1013E000804F0BD00A4A914207D1C16941F00201F6
:1013F000C161C06900F00200009008BDC16941F000
:101400000101C161C06900F00100F5E70010024070
:101410000004004010B50446022249B104290ED050
:10142000082913D094F84100012816D0012010BDDE
:1014300094F83E000128F9D184F83E200FE094F89A
:101440003F000128F2D184F83F2008E094F84000E2
:101450000128EBD184F8402001E084F841200122EA
:10146000206800F043FE0E492068884203D1426C98
:1014700042F4004242642068884205D0B0F1804FB7
:1014800002D00849884204D1816801F00701062989
:1014900003D0016841F001010160002010BD00008F
:1014A000002C01400004004030B504460D460068A1
:1014B000002200F01BFE174B41F2111120688A1028
:1014C000984209D1036A0B4206D1036A134203D141
:1014D000436C23F4004343642068036A0B4206D143
:1014E000016A114203D1016821F00101016001206C
:1014F0003DB1042D08D0082D09D084F8410000200A
:1015000030BD84F83E00FAE784F83F00F7E784F83E
:101510004000F4E7002C014070477047F8B50268BE
:1015200004461068D168536910F00F0F4FF00005A2
:1015300053D003F0010601F4907737435FD0C20720
:1015400005D0CA0503D5226C42F00102226442078D
:1015500005D5DA0703D0226C42F00202226482072A
:1015600005D5DA0703D0226C42F004022264020798
:1015700007D501F02002324303D0226C42F008026A
:101580002264226C002A34D0800604D5880602D555
:10159000204600F07BFE20684069216CC0F380107B
:1015A000090700D430B3204600F058FE2068416996
:1015B00049061BD5416921F040014161A06BA8B1EA
:1015C00058494163A06BFFF721F8002811D0A06BA8
:1015D000416B01B0BDE8F040084783060FD58B068C
:1015E0000DD52046BDE8F84000F050BE2046FFF77C
:1015F00094FFF8BD2046FFF790FF2564F8BD266BE9
:101600002023012E52D1C60650D5CE064ED51068E5
:1016100050680090506940062AD5A16B0868406860
:101620000004000CEAD0A68D8642E7D9E0858869DF
:10163000202818D0D06820F48070D06020684169DC
:1016400021F0010141612068416921F040014161BF
:1016500084F83E3025632068C16821F01001C16024
:10166000A06BFEF7AFFFA08DE18D401A81B219E0AB
:10167000A08DE18D401A81B2E08D0028BED00029F6
:10168000BCD0D06820F49070D0602068426922F00D
:101690000102426184F83E3025632068C26822F06E
:1016A0001002C2602046FFF737FFF8BD05062BD5B4
:1016B0000D0629D594F83D002128F6D1A068B0F593
:1016C000805F01D12069B0B1206A411C216221688C
:1016D00000784860E08C401E0004000CE084E4D1F7
:1016E0002068C16821F08001C1602068C16841F0B4
:1016F0004001C160F8BD206A0088C0F30800506056
:10170000206A801C2062E5E74006F3D54806F1D543
:10171000D168204621F04001D16084F83D3000F0CE
:1017200000F9F8BD4D22000870B5040004D094F80B
:101730003D00002510B106E0012070BD84F83C504A
:10174000204600F023F8242084F83D002068C1687A
:1017500021F40051C160204600F0F4FD20680169C9
:1017600021F4904101612068416921F02A01416121
:101770002068C16841F40051C1602564202084F8CC
:101780003D0084F83E00002070BD000030B585B0FB
:10179000002400940194029403940068184988423C
:1017A0002CD11848816941F480418161816901F43B
:1017B00080410491816941F0040181618069124D89
:1017C00000F0040004904FF400700090022001909B
:1017D0000320039069462846FEF7C2FF2815CDE98D
:1017E0000004694628460294FEF7BAFF002211461B
:1017F0002520FFF705FA2520FFF7F4F905B030BDE5
:1018000000380140001002400008014090F83E30CE
:10181000202B0ED159B152B190F83C30012B08D099
:10182000012380F83C300023036300F0E7BD012072
:1018300070470220704700000B4810B5017819B1BD
:1018400000210170418005E0074A4178921C117027
:101850000121017002F052FE03490122BDE810404F
:10186000491C0248FFF7D2BF0000002038010020C9
:101870002DE9F843044690F83D001F4616460D46F4
:1018800020284CD1C5B1BEB194F83C00012846D007
:10189000012084F83C004FF00008C4F8408021206B
:1018A00084F83D00FFF746F8A6848146E684A068E8
:1018B000B0F5805F03D004E00120BDE8F883206923
:1018C00028B12E465FF0000584F83C800EE000262B
:1018D000FAE78021204600F0ACFDA0B9AEB116F8C1
:1018E000010B21684860E08C401EE084E08C4B4690
:1018F0004FF0000200970028EBD14FF04001204646
:1019000000F097FD30B10320D7E735F8020BC0F3A4
:101910000800E6E7202084F83D000020CDE7022003
:10192000CBE77047FEE7000070B5104D4FF4007430
:10193000002221462846FEF7F8FF00F019F80122A0
:10194000160231462846FEF7F0FF00F011F800229B
:1019500031462846FEF7E9FF00F00AF821462846FE
:10196000BDE870400122FEF7E0BF0000000C01401E
:101970000020401CC0B20A28FBD370470C4800B5B9
:10198000816985B041F0080181618069694600F094
:10199000080004904FF44070009003200390112041
:1019A00001900448FEF7DCFE00F0AAF805B000BD87
:1019B00000100240000C014070B50C4C0122510295
:1019C0002046FEF7B2FFFFF7D3FF0122150229469A
:1019D0002046FEF7AAFFFFF7CBFF0022294620464C
:1019E000FEF7A3FFBDE87040FFF7C2BF000C014047
:1019F0002DE9F0470024164E804625464FF4007925
:101A00004FF480776006040E012239463046FEF717
:101A10008CFFFFF7ADFF49463046FEF781FF08B166
:101A2000641CE4B2002239463046FEF77EFFFFF721
:101A30009FFF6D1CEDB2082DE4D3B8F1000F04D068
:101A4000FFF772FF2046BDE8F087FFF7B5FFF9E723
:101A5000000C01402DE9F041174E054600244FF4DB
:101A600080774FF40078280601D5012200E000229B
:101A700041463046FEF759FFFFF77AFF012239460B
:101A80003046FEF752FFFFF773FF0022394630461B
:101A9000FEF74BFF072C04D1012241463046FEF7EA
:101AA00044FF6806050EFFF763FF641CE4B2082CD0
:101AB000D9D3BDE8F0810000000C014070B50122CF
:101AC0000E4D540221462846FEF72FFF0122160232
:101AD00031462846FEF729FFFFF74AFF002221463C
:101AE0002846FEF722FFFFF743FF00223146284633
:101AF000FEF71BFFBDE87040FFF73ABF000C014046
:101B000070B50B4D4FF40074002221462846FEF7B5
:101B10000CFF012211022846FEF707FFFFF728FFFE
:101B200021462846BDE870400122FEF7FEBE0000B7
:101B3000000C014070B50122104D54022146284688
:101B4000FEF7F3FEFFF714FF012216023146284686
:101B5000FEF7EBFEFFF70CFF21462846FEF7E0FEFE
:101B600008B1012400E00024002231462846FEF797
:101B7000DCFEFFF7FDFE204670BD0000000C0140BA
:101B800010B5FFF7FBFE80216B2000F0C0F8642049
:101B9000FEF788FD00216B2000F0B9F8032000F06B
:101BA00082F8002000F07AF8322000F099F8002145
:101BB000382000F0ACF800216A2000F0A8F80021DD
:101BC000232000F0A4F88021372000F0A0F8752031
:101BD00000F011F8682801D0012010BD01216B2010
:101BE00000F095F800216C2000F091F8322000F010
:101BF00077F8002010BD10B50446FFF75FFFD02036
:101C0000FFF728FFFFF796FF2046FFF723FFFFF7B8
:101C100091FFFFF753FFD120FFF71CFFFFF78AFF6B
:101C20000020FFF7E5FE0446FFF76AFF204610BDDF
:101C30002DE9F0411D4614460F460646FFF73EFFCC
:101C40007006000EFFF706FFFFF774FF20B1FFF7E5
:101C500057FF0120BDE8F0813846FFF7FBFEFFF794
:101C600069FFFFF72BFF012000EB4600C0B2FFF732
:101C7000F1FEFFF75FFF09E0012C0DD05FF00100DE
:101C8000FFF7B6FE641E05F8010BE4B2002CF3D199
:101C9000FFF736FF0020DDE70020F1E7C006010E68
:101CA0001C2000F034B8C006010E1B2000F02FB835
:101CB000BC2801D3012110E0622801D302210CE0ED
:101CC0002A2801D3032108E0142801D3042104E0C9
:101CD0000A2801D3052100E006211A2000F017B8D8
:101CE00010B504464FF47A70844201D9044602E0EC
:101CF000042C00D20424B0FBF4F0401EC1B2192021
:101D000000F005F86008BDE81040FFF7D1BF70B5DE
:101D10000C460546FFF7D2FED020FFF79BFEFFF7EB
:101D200009FF50B92846FFF795FEFFF703FF20464D
:101D3000FFF790FEFFF7FEFE18B1FFF7E1FE01206E
:101D400070BDFFF7DDFE002070BD2DE9F0411E469D
:101D500015460F460446FFF7B1FE6006000EFFF77A
:101D600079FEFFF7E7FE60B93846FFF773FEFFF72D
:101D7000E1FE00240CE0305DFFF76CFEFFF7DAFEB9
:101D800020B1FFF7BDFE0120BDE8F081641CE4B284
:101D9000AC42F0D3FFF7B4FE0020F5E72DE9F041A7
:101DA00086B000242D480094019402940394816924
:101DB00041F010018161816901F010010491816994
:101DC00041F020018161816901F020010491816964
:101DD00041F004018161816901F00401049181698C
:101DE00041F00801816180691D4F00F008004FF447
:101DF00000550490002229463846FEF796FDDFF88C
:101E0000648000221E214046FEF78FFD00950226C9
:101E100001250396CDE9015469463846FEF7A0FC3A
:101E20001E20CDE90005CDE9024669464046FEF791
:101E300097FC4FF4704000900B48CDE901046946CF
:101E40000A48FEF78DFC002211462820FEF7D8FE36
:101E50002820FEF7C7FE06B0BDE8F0810010024062
:101E6000001001400008014000002110000C01405A
:101E70000D4810B50B4901600C49416000214FF439
:101E800080428160C0E9031241618161C1610162E8
:101E9000FEF756FD002803D0BDE81040FEF75EBBFC
:101EA00010BD00000054004054000020A086010036
:101EB00010B58AB0002407941C2168460894FEF7E8
:101EC0007BF921484FF08041C0E900144FF6FF71C3
:101ED000C0E9024104618461FFF751FA08B1FEF7DD
:101EE0003DFB079407A918480894FFF74BF908B180
:101EF000FEF734FB6020CDE900040294002269461D
:101F000011480494FFF7D8F908B1FEF727FB042223
:101F100069460D48FFF7D0F908B1FEF71FFB08220C
:101F200069460948FFF7C8F908B1FEF717FB0C220C
:101F300069460548FFF7C0F908B1FEF70FFB0248F4
:101F4000FFF750F90AB010BDA800002010B58AB004
:101F5000002407941C2168460894FEF72DF92248B6
:101F60002049C0E900144FF6FF71C0E90241046145
:101F70008461FFF704FA08B1FEF7F0FA079407A9A5
:101F800019480894FFF7FEF808B1FEF7E7FA602059
:101F9000CDE9000402940022694613480494FFF737
:101FA0008BF908B1FEF7DAFA042269460E48FFF70A
:101FB00083F908B1FEF7D2FA082269460A48FFF70A
:101FC0007BF908B1FEF7CAFA0C2269460648FFF70A
:101FD00073F908B1FEF7C2FA0348FFF703F90AB034
:101FE00010BD000000040040F00000200C4810B5B7
:101FF0000A4901604FF4E1314160002181600C2207
:10200000C160C0E904128161C161FFF78DFB002846
:1020100003D0BDE81040FEF7A1BA10BD0038014062
:1020200038010020FEE7FEE770477047FEF782BDEB
:1020300030B58FB028216846FEF7BEF814210AA8F3
:10204000FEF7BAF801210804CDE90010002402943B
:1020500002250491CDE907504FF4E010099068463D
:10206000FEF7ECFE08B172B6FEE70F20CDE90A05D7
:102070004FF48060CDE90C4002210AA80E94FEF7CF
:10208000F1FD002801D072B6FEE70FB030BD7047F9
:1020900070B50268134B144C4FF08046984203D041
:1020A000B04201D0A04203D122F070054A682A4311
:1020B000984203D0B04201D0A04203D122F4407430
:1020C000CA6822434C6922F08002224302608A6877
:1020D000C2620A688262984201D1096901630121E2
:1020E000416170BD002C01400004004010B501F0BA
:1020F0001F030121046A99408C430462016A9A40DB
:102100001143016210BD000030B5026A22F00102E5
:102110000262026A4368846924F073050C682C43E8
:1021200022F002058A682A430A4DA8420BD122F008
:102130000805CA6823F440732A434D6922F004025B
:102140001D438B692B43436084614968416302628C
:1021500030BD0000002C014030B5026A22F01002B0
:102160000262026A436884690D6824F4E64444EA22
:1021700005248D6822F0200242EA05120B4DA84288
:102180000ED1CD6822F0800242EA05124D6923F497
:10219000406343EA85038D6922F0400243EA8503E8
:1021A0004360846149688163026230BD002C014054
:1021B00030B5026A22F480720262036A4268C4691E
:1021C00023F4007324F073050C682C438D6843EAF4
:1021D00005230C4DA8420ED1CD6823F4006343EAD9
:1021E00005234D6922F4405242EA05128D6923F419
:1021F000806342EA05124260C4614968C1630362B8
:1022000030BD0000002C014030B5026A22F480523B
:102210000262046A4268C3690D6823F4E64343EA34
:1022200005238D6824F4005444EA0534064DA84281
:1022300004D14D6922F4804242EA85124260C361B2
:1022400049680164046230BD002C014010B5406A49
:102250000021C185C184FFF760F910BD0168CA681B
:1022600022F49072CA6001684A6922F001024A6150
:10227000016B012904D10168CA6822F01002CA600A
:10228000202180F83E1000210163704708B590F8C6
:102290003E10222901D0022008BD82684FF48053ED
:1022A0009A4201D1016921B1816A9A421BD04AB197
:1022B0000AE00268816A5268C2F308020A80816AF1
:1022C000891C08E0026972B10268526802F07F025C
:1022D0000A70816A491C8162C18D491E0904090C7A
:1022E000C18503D019E002685268F1E70168CA6845
:1022F00022F02002CA600168CA6822F48072CA60B3
:1023000001684A6922F001024A61202180F83E10EA
:10231000016B012903D0FFF78FFA002008BD0021CF
:1023200001630168CA6822F01002CA6001680A6885
:10233000D20602D50A6849680091818DFFF7ECF852
:10234000EBE7000070B5044600680169E26821F41B
:102350004051114301612169A06808436169084344
:102360002168CA6841F20C639A430243CA6020683C
:102370004169A26921F44071114341611E492068FD
:10238000884202D1FEF714FD01E0FEF701FD00EBEB
:10239000C00101EB0012606864218000B2FBF0F321
:1023A000B3FBF1F36FF018067343B2FBF0F5B2FB29
:1023B000F0F605EB8305322303EB0515B5FBF1F5CC
:1023C000B6FBF1F605F0F00505EB0615B2FBF0F6ED
:1023D000B2FBF0F0B0FBF1F06FF01802504306EBE7
:1023E000800003EB0010B0FBF1F0216800F00F005B
:1023F0002844886070BD00000038014081628285F9
:10240000C28500210164222280F83E2080F83C1021
:102410000168CA6842F48072CA6001684A6942F081
:1024200001024A610068C16841F02001C1600020DA
:1024300070472DE9F041984617460E460446069D22
:102440001DE0681C1BD02DB1FEF774FAA0EB08004C
:10245000A84214D92068C16821F4D071C1602068F5
:10246000416921F001014161202084F83D0084F898
:102470003E00002084F83C000320BDE8F081206885
:10248000006836EA000004D00020B842D9D000200D
:10249000F3E70120F9E700000148FFF73FB800002B
:1024A00038010020FEE700000FB4054B10B503A96A
:1024B000044A029800F028F810BC5DF814FB0000F4
:1024C000D1310008500000200907090E002804DB64
:1024D00000F1E02080F80014704700F00F0000F1D8
:1024E000E02080F8141D704702E008C8121F08C1E0
:1024F000002AFAD170477047002001E001C1121F85
:10250000002AFBD1704700002DE9FF4F8DB00F4628
:102510000546002606E025280BD0DDE90F1290477E
:102520006D1C761C28780028F5D111B03046BDE826
:10253000F08F0024A246A1460122E94900E00443AD
:1025400015F8013F203B02FA03F00842F7D1287842
:102550002A2810D06FF02F022878A0F13001092925
:1025600014D80AEB8A0102EB410144F0020400EBAB
:10257000010A6D1CF0E701CF5FEA000A03D544F4BD
:102580000054CAF1000A44F002046D1C28782E2879
:1025900017D115F8010F44F004042A280ED06FF06B
:1025A0002F022878A0F1300109290AD809EB890106
:1025B00002EB410100EB01096D1CF2E757F8049BA7
:1025C0006D1C28786C280FD006DC4C2817D06828A2
:1025D0000DD06A2814D104E0742810D07A280FD1C5
:1025E0000DE044F400140AE044F4801401E044F4E3
:1025F00040146978814202D104F580146D1C6D1C71
:1026000028786E281ED00CDC632830D004DC00282B
:102610008BD0582811D19FE0642867D069280CD14D
:1026200064E073282DD004DC6F2872D0702804D1A8
:1026300094E075286ED078286DD0DDE90F129047B0
:10264000761C4BE1C4F30250022806D0032809D0BF
:10265000042801CF09D0066040E101CFF117C0E99D
:1026600000613BE101CF068038E1067036E117F8E2
:10267000040B8DF8000000208DF80100EB460120CE
:1026800003E057F804BB4FF0FF3061074FF0000143
:1026900002D40DE008F10101884649450FDA804572
:1026A000F8DB1BF808100029F4D108E008F101015B
:1026B00088468142FADB1BF808100029F6D1DDE9D3
:1026C0000F23AAEB08008146214600F031F930447F
:1026D00000EB080604E0DDE90F121BF8010B904740
:1026E000B8F10108F7D221464846F2E00A21C4F3C6
:1026F00002524FF0000B0891022A04D001CFC117FB
:10270000032A09D00AE0FF1D27F00707F7E80201B6
:1027100008E02CE01EE01FE000B2C117042A01D13E
:1027200040B2C117021E71F1000206DA0023D0EB9D
:10273000030063EB01012D2202E0220504D52B22C8
:102740008DF82420012203E0E20701D02022F7E7E0
:10275000904653E00A210BE0102109E010214FF0D0
:10276000000B44F004044FF00809089103E008212D
:102770004FF0000B0891C4F30252022A04D001CF9B
:102780000021032A06D006E0FF1D27F00707F7E81F
:10279000020103E080B2042A00D1C0B24FF0000869
:1027A00022072BD52A78702A07D0DDF820C08CF0BC
:1027B000100C5CEA0B0C05D00EE040228DF82420B2
:1027C000012208E050EA010306D030238DF82430BE
:1027D0008DF8252002229046089B83F0080353EAD7
:1027E0000B030BD150EA010201D1620706D530225A
:1027F0008DF824204FF00108A9F101092A78582A00
:1028000004D038A20B9208AA0A920BE03AA2F9E788
:102810005B46089AFDF7F7FD0B9B9B5C0A9A521EDC
:102820000A92137050EA0102F2D10A98ADEB00004F
:1028300000F1200B600702D524F4803401E04FF052
:102840000109D94502DDA9EB0B0000E0002000EBF7
:102850000B0141440890AAEB010AE00306D4DDE92C
:102860000F232146504600F063F806444FF000095C
:1028700008E009A911F80900DDE90F12904709F1F4
:102880000109761CC145F4DBE0030CD5DDE90F231B
:102890002146504600F04CF8064404E0DDE90F12F2
:1028A00030209047761C0899481E08900029F5DCD6
:1028B00008E00A980A990078491C0A91DDE90F128C
:1028C0009047761CBBF10001ABF1010BF1DC214616
:1028D0005046DDE90F2300F019F806446D1C21E68F
:1028E00009280100303132333435363738396162E6
:1028F00063646566000000003031323334353637AA
:102900003839414243444546000000002DE9F0417A
:10291000044600251E461746880404D405E03946BF
:102920002020B0476D1C641EF9D52846BDE8F08113
:102930002DE9F041044600251E469046C80301D506
:10294000302700E02027880404D505E041463846BA
:10295000B0476D1C641EF9D52846BDE8F081000023
:102960002DE9FE4F07460E460025684600F03CFC68
:1029700000246FF00F0AE8464FF0010957F82400D1
:1029800056F82410401A00D54042FDF701FD51468B
:10299000FDF7F2FC58F8241011F0FF4F0BD0FDF7B3
:1029A000ADFC4FF07E51FDF771FC0A4920F000406C
:1029B000884205DC07E0084908440849884202D3F8
:1029C00009FA04F00543641C032CD7DB2846BDE854
:1029D000FE8F0000295C0F3E666666C19A99D90099
:1029E00008B560B120208DF8000028208DF8010086
:1029F00030208DF8020038208DF8030004E0A32277
:102A000004216846FDF7D1FB6A46042140F69E206A
:102A100001F00AFD01F0C8F908BD00003EB504460A
:102A200002208DF80000CA208DF80100E3208DF807
:102A3000020009208DF803006A460421682001F095
:102A4000F3FCA3208DF80000610609D5C0218DF8A4
:102A50000110C8218DF80210C2218DF8031005E085
:102A60008DF801008DF802008DF8030014F4C07F8A
:102A700009D0C4218DF80410CC218DF80510C62191
:102A80008DF8061005E08DF804008DF805008DF82E
:102A900006008DF808008DF807008DF809006A46D9
:102AA0000A2140F6A72001F0BFFCA0074FF0D8058F
:102AB00003D020208DF8000001E08DF800506A4618
:102AC000012140F6B62001F0AFFCA00601D501209F
:102AD00000E0002000F08EF814F4C07F1ED0E00566
:102AE0000AD5B2208DF800008B208DF80100B620A9
:102AF0008DF802009B2009E0B0208DF800008020B6
:102B00008DF80100B4208DF8020090208DF80300AC
:102B10006A46042140F6A22001F086FCE1074FF44A
:102B20000B6022D0F8218DF800106A46012101F0D7
:102B30007BFCFA21072000F097FA072000F062FAE8
:102B4000012000F07FFA642000F022FB4FF4FA70BD
:102B500000F02EFBC821254800F01CFA282000F0C8
:102B600031FA0A2000F03EFA05E08DF800506A467E
:102B7000012101F059FCA00703D5D9208DF80000F0
:102B800001E08DF800506A46012140F23D7001F0ED
:102B90004BFC600701D5012000E0002000F048F860
:102BA000E00601D5012000E00020FFF719FF104DDD
:102BB00044F00800688101F0F7F80020A87360066F
:102BC00001D50620A87314F4C07F02D0A87B801D15
:102BD000A87314F0140F02D0A87B1030A873A007BC
:102BE00002D0A87B001DA87300203EBD09E3CA02E5
:102BF0007C0100200EB54FF4976310B106A107C900
:102C000001E008A207CA8DE807006A4609211846B4
:102C100001F00AFC0EBD0000B8AAB38DB4980D35C2
:102C20005D000000B8AAAAAAB088C3C5C70000000A
:102C300008B560B1C0208DF80000C2208DF80100F9
:102C4000C4208DF80200C6208DF8030004E08B221A
:102C500004216846FDF7A9FA6A46042140F6982047
:102C600001F0E2FB01F0A0F808BD0000C8234FF41A
:102C70008062024940F6F63000F0C0BF0448000808
:102C80002DE9FF41044603A800F06EFEBDF80C00DC
:102C9000410CC3032F48008900F0030254F822506E
:102CA000420700D56D42C0F3C102860654F82220C7
:102CB00000D55242C0F38116C00554F8264000D515
:102CC0006442A5FB0367E81700FB037005FB0100E6
:102CD000850045EA9670A2FB0367D51705FB0375CF
:102CE00002FB0152950045EA9672A4FB0367E517C3
:102CF00005FB037304FB01318B0043EA9671030E5D
:102D00008DF80030030C8DF80130030A8DF8023085
:102D10008DF80300100E8DF80400100C8DF80500DE
:102D2000100A8DF80600080E8DF80800080C8DF8C2
:102D30000900080A8DF80A008DF807208DF80B109D
:102D40006A460C214FF4257001F06EFB04B0BDE81B
:102D5000F08100007C01002030B5044613A285B04C
:102D600007CA8DE807004FF0FF35C82C16D8C820D9
:102D7000B0FBF4F1491E080A8DF80C008DF80D1017
:102D800003AA022140F2162001F04EFB30B96A4638
:102D90000C2140F6C12001F047FB10B1284605B0D8
:102DA00030BD054884810020F9E70000FEF2ABC485
:102DB000AAF1DFDFBBAFDFDF7C010020F8B53049CF
:102DC000098901F0030250F822404A0700D5644205
:102DD000C1F3C1028B0650F8222000D55242C1F344
:102DE000811350F82330C80500D55B42254984FB88
:102DF0000140850045EA947082FB0142A40F44EA39
:102E0000820483FB0121950F45EA8105010E8DF8AF
:102E10000010010C8DF80110010A8DF802108DF8D8
:102E200003006A4604214FF4747001F0FDFA4FF07C
:102E3000FF3688B9200E8DF80000200C8DF80100B7
:102E4000200A8DF802008DF803406A4604214FF4F1
:102E5000757001F0E9FA08B13046F8BD280E8DF81A
:102E60000000280C8DF80100280A8DF802008DF86A
:102E700003506A4604214FF4767001F0D5FAF8BD8C
:102E80007C01002009E3CA022DE9FF4104463CA071
:102E900004F00303006802903AA0006803903AA08F
:102EA00006683AA0056802A8C15C8DF80010C4F35A
:102EB000C101425C8DF80120C4F38112805C8DF861
:102EC000020003A8C35C8DF80430415C8DF8051046
:102ED000805C8DF806006A46032140F2264001F02E
:102EE000A3FA4FF0FF37E0BB01AA032140F22A40CA
:102EF00001F09AFAA8BBCDE9006560070BD59DF8F3
:102F0000000040F001008DF800009DF8040040F042
:102F100001008DF80400A0060BD59DF8010040F0DB
:102F200001008DF801009DF8050040F001008DF8CA
:102F30000500E0050BD59DF8020040F001008DF87A
:102F400002009DF8060040F001008DF806006A4678
:102F500003214FF4886001F067FA10B901AA032138
:102F600000E004E040F2314001F05EFA18B138466A
:102F700004B0BDE8F081064804810020F8E70000B5
:102F80004CCD6C000CC92C003656760026466600E7
:102F90007C0100204FF47A7290FBF2F008B54843B0
:102FA000010E8DF80010010C8DF80110010A8DF84A
:102FB00002108DF803006A4604214FF4AE7001F050
:102FC00033FA08BD0521B0FBF1F008B5010A8DF810
:102FD00000108DF801006A4602214FF4AD7001F037
:102FE00023FA08BD0521B0FBF1F008B5010A8DF800
:102FF00000108DF801006A4602214FF4AC7001F018
:1030000013FA08BD08B500218DF80010C10702D0E1
:1030100030218DF80010810705D59DF8001041F092
:103020000C018DF80010400705D59DF8000040F018
:1030300003008DF800006A4601214FF4A47001F0EE
:10304000F3F908BD08B560B1042800D90420401E7A
:103050008DF800006A46012140F24F1001F0E4F9BA
:1030600008BD0120F3E700002DE9FC4105464007BB
:103070004FF0FF367CD0B1F5C86F79D80846FDF720
:1030800090F93E49FDF73AF9074601A800F04EFCD9
:103090009DF80400022806D004280DD008282ED060
:1030A000102865D134E00E213846FDF765F9FDF7AB
:1030B00096F984B2324907E00D213846FDF75CF9F4
:1030C000FDF78DF92F4984B23846FDF7E5F8FDF795
:1030D00086F9210A8DF8001080B28DF80140010AAE
:1030E0008DF802108DF80300E8076C4620D02246C8
:1030F00002214FF4EA7001F097F9C8BB11E00C21EE
:103100003846FDF739F9FDF76AF984B21E49DBE765
:103110000B213846FDF730F9FDF761F984B21B4900
:10312000D2E7A21C02214FF4927001F07DF9F8B9A8
:10313000A8070DD56A4602214FF4EC7001F074F92E
:10314000B0B9A21C02214FF4947001F06DF978B966
:10315000680710D56A4602214FF4EE7001F064F959
:1031600030B9A21C02214FF4967001F05DF910B144
:103170003046BDE8FC810020FBE70000000048432A
:10318000000040460000C045000040450000C0442B
:103190000521B0FBF1F008B5010A8DF800108DF89B
:1031A00001006A4602214FF4EF7001F03DF908BDBD
:1031B0000521B0FBF1F008B5010A8DF800108DF87B
:1031C00001006A4602214FF4ED7001F02DF908BDAF
:1031D00013B54FF0FF33012269460248FEF748FB62
:1031E00000981CBD380100202DE9FE430646264804
:1031F00001AB042240680D210078FEF719FD10B1E3
:103200000720BDE8FE839DF804101C2000EAD102CF
:103210009DF80710DFF87490C1F301131A438DF87D
:1032200000209DF80520C1F3810300EAD2021A4371
:103230008DF801209DF8062001F0030100EAD2007C
:1032400008430024124F8DF80200A0466D46285D09
:1032500010B146F824900AE046F824800DE000BF43
:1032600056F824003946FDF717F846F82400285D83
:10327000401E10F0FF002855F2D1641CE4B2032C6C
:10328000E5D30020BDE70000180000207B14AE3E0F
:103290001D5A843F2DE9FE4F05460120C14E8DF891
:1032A00000004FF000088DF8018030680C4617468A
:1032B000817C70686B4602220078FEF746FD4FF075
:1032C000FF3A00287AD1C820FDF7ECF98DF800808C
:1032D00030686B460122C17B70680078FEF735FDCF
:1032E0000028EFD130686B46012241797068007880
:1032F000FEF72BFD0028E5D130686B460122817C6A
:1033000070680078FEF721FD0028DBD130686B463D
:103310000122C17D70680078FEF717FD0028D1D129
:1033200030686B460122017970680078FEF70DFD68
:103330000028C7D14FF00C098DF8009030686B461B
:103340000122017970680078FEF7FFFC002835D172
:103350000F20FDF7A7F9B06A6B460122407A8DF87D
:1033600000003068817870680078FEF7EEFC002875
:1033700024D1B06A6B460122007A8DF800003068D3
:10338000417870680078FEF7E0FC002873D1B06ADD
:10339000807A0FB140F0E0008DF8000030686B4695
:1033A0000122817970680078FEF7CFFC002862D195
:1033B0002FB1B06AC07A40F0E00001E04AE0182086
:1033C0008DF8000030686B460122C1797068007882
:1033D000FEF7BBFCF0BB17B1C820FDF763F9402036
:1033E0008DF8000030686B46012201797068007822
:1033F000FEF7ABFC70BB78208DF8000030686B46A0
:103400000122417970680078FEF79FFC10BB3220E2
:10341000FDF748F98DF80080306847466B464179E2
:10342000706801220078FEF790FC98B931687068E6
:10343000B046897A00786B460222FEF7F9FB48B95C
:10344000BDF80000AF6040BAB0FBF9F06F60C6B2E3
:103450002F6000E00FE0A76067602760002739E079
:10346000D8F80010D8F804006B46C97A00780C220E
:10347000FEF7DEFB10B15046BDE8FE8FBDF8000040
:10348000236840BA00B2BDF80210BDF80420184409
:10349000206049BA606809B20844606052BAA06806
:1034A00012B21044A060BDF806002B6840BA01B209
:1034B000BDF80800BDF80A201944296040BA6968BF
:1034C00000B20844686052BAA86812B210447F1C67
:1034D000FFB2A860B742C3D328688322C11709048A
:1034E00041EA104100040023FCF71EFE324600238F
:1034F000FCF71AFE286068688322C117090441EAB4
:10350000104100040023FCF70FFE32460023FCF7B5
:103510000BFE6860A8688322C117090441EA1041C4
:1035200000040023FCF700FE32460023FCF7FCFDFC
:10353000A86020684FF40065C117090441EA1041F2
:1035400000042A460023FCF7EFFD32460023FCF777
:10355000EBFD206060682A46C117090441EA10416A
:1035600000040023FCF7E0FD32460023FCF7DCFDFD
:103570006060A0682A46C117090441EA10410004AE
:103580000023FCF7D1FD32460023FCF7CDFDA060FF
:10359000002802DDA0F5803001E000F58030A06059
:1035A000002069E7180000202DE9F84F81462E48D9
:1035B0008846002540686B46032200780D21FEF7FF
:1035C00037FB10B10720BDE8F88F9DF800000024FC
:1035D00000F01F008DF800009DF801006FF00F0B48
:1035E00000F01F008DF801009DF802006E4600F00B
:1035F0001F008DF802004FF0010A00BF59F8241097
:1036000058F82400081A00D54042FCF7C1FE59467C
:10361000FCF7B2FE0746305DC0B1144802E0144921
:10362000FCF73AFE315D491E11F0FF013155F6D12C
:1036300001463846FCF762FE4FF07E51FCF726FE4D
:103640000C4920F00040884205DC07E00A48384475
:10365000B0F1D97F02D90AFA04F00543641C032CA7
:10366000CCDB2846AFE70000180000200000C8416E
:1036700054E3853F295C0F3E0000E0BE00B50246E2
:1036800000F00DF80346D01C00F009F843EAC0032F
:10369000901D00F004F843EA801080B200BD90F95C
:1036A0000010002902DD4FF00000704702DA4FF0F1
:1036B0000400704790F90110002902DD4FF001006D
:1036C000704702DA4FF00500704790F902000028B9
:1036D00002DD4FF00200704702DA4FF0060070473B
:1036E0004FF0070070470000FDF72CFAFEF7A0FC32
:1036F000FEF754FBFEF72AFCFEF7BAFBFEF776FC5A
:10370000FEF7D6FBFEF73CFA00F0BEF800F034F806
:1037100005A0FEF7C9FE00F01FF801220449054884
:10372000FEF774F8FEE70000696E69740D0A000088
:1037300001000020380100200649C8200860054A21
:103740006421121D1160121D1060101D016000F037
:1037500045B8000034040040064964200860054A6A
:103760008100121D1160121D1060101D016000F01B
:1037700035B8000034040040074940F2F3100860F7
:103780000549002008310860091D0860091D08600E
:10379000091D0860704700002C04004006496420A1
:1037A0000860054A8100121D1160111D086000208B
:1037B000091D086000F012B8340400400649642076
:1037C0000860054A0021121D1160111D086080006B
:1037D000091D086000F002B83404004010B5002153
:1037E0000848FDF717FE04210648FDF713FE0821DF
:1037F0000448FDF70FFEBDE810400C210148FDF71D
:1038000009BE0000F000002010B500210848FDF7B7
:103810004BFE04210648FDF747FE08210448FDF74A
:1038200043FEBDE810400C210148FDF73DBE0000FD
:10383000F00000202DE9F041124C20F0010100259C
:1038400094F8240010B10020BDE8F081A07A4FF078
:10385000FF3668B10840277C2074884200D0354686
:1038600041B1012000F08CFE00F09EFA38B12774BF
:103870003046E9E7207D00B1012000F081FE2846B6
:10388000E2E700001800002010B5FEF777F800F01E
:10389000F1F808B10A2010BD782000F069FD10F0A1
:1038A000FF0F01D0012010BD7820FFF7C3FF10F0FB
:1038B000FF0F01D0022010BD642000F019FD10F0B0
:1038C000FF0F01D0032010BDFFF7D0F910F0FF0F5C
:1038D00001D0042010BD1448FFF7D0FEFFF7D4FA42
:1038E00010F0FF0F01D0052010BD40F27310FFF75C
:1038F00095F810F0FF0F01D0062010BD6420FFF7EF
:103900002BFA10F0FF0F01D0072010BD00F0B6FD1C
:1039100008B1082010BD012000F010FC10F0FF00DD
:10392000F8D0092010BD0000440000200D494A7A5B
:1039300042B1012A08D0022A0FD0032A0FD04FF03B
:10394000FF307047022200E004220270C97C11B1EE
:103950001106C90D0170002070470822F5E71022FA
:10396000F3E70000180000200F494A7A42B1012A0B
:1039700009D0022A11D0032A12D04FF0FF3070472D
:103980004FF4804201E041F69C720280C97C11B183
:10399000C2F34E010180002070474FF48052F4E7DB
:1039A0004FF40062F1E70000180000200B49097A8B
:1039B00039B1012907D002290AD003290BD00021EF
:1039C00003E0FA2101E04FF4FA7101800020704712
:1039D0004FF47A71F9E74FF4FA61F6E71800002026
:1039E0000A49097A41B1012908D002290AD00329DC
:1039F0000AD04FF0FF307047054900E005490160EB
:103A0000002070470449FAE70449F8E7180000204D
:103A100000000343000083423333034233338341C6
:103A20000C49C97A072913D2DFE801F01204060A0B
:103A30000C0E1000BC2100E06221018000207047C4
:103A40002A21FAE71421F8E70A21F6E70521F4E72D
:103A50000021F2E718000020054991F8242012B156
:103A60004FF0FF307047C989018000207047000087
:103A7000180000202DE9FC414C4C80208DF80000FE
:103A800020686B460122817C60680078FEF75DF952
:103A90004FF0FF37002832D16420FCF703FE0025E9
:103AA0008DF8005020686B460122817C60680078A8
:103AB000FEF74BF9002870D120686B460622817D05
:103AC00060680078FEF7B4F8002866D19DF805001C
:103AD0009DF80310C007400F01F0010140EA4101C9
:103AE0009DF801004FF0010600F00100014309D0EC
:103AF000012905D0022915D02DA0FEF7D5FC4CE0F8
:103B0000E67410E020686B460122C1786068007896
:103B1000FEF78EF840BB9DF8000010F00F0020D09B
:103B2000042822D0E574FF2004F80A0F4FF6FF7135
:103B300004F8020C04F8010C6070A180A0712072DE
:103B4000A67026766576E572A572E56025616561E9
:103B5000A576E576A5834FF4FA6000F02BFB18B943
:103B600007E01D48FEF7A0FC17E01CA0FEF79CFC38
:103B7000C6E7022000F040FA78B92A2000F082FB64
:103B800058B9322000F0B4FB38B90020FFF752FEDC
:103B900018B9002000F064FA10B13846BDE8FC8185
:103BA000002000F0E5FB0020F8E7000018000020EE
:103BB000556E737570706F7274656420736F667480
:103BC000776172652070726F6475637420726576B8
:103BD0002025642E0A000000FC53000848616C6632
:103BE0002073656E73697469766974792070617287
:103BF0007420666F756E642E0A0000002DE9FF4F79
:103C0000DFF89480064685B098F8250015460F46E3
:103C10004FF0FF39B0BBAFB3002420E0301B1028B9
:103C200000DD102080B283463A19014692462046B4
:103C300000F0FAFB30BB6A465946204600F08AF88D
:103C400000BB50465A466946FCF7C1FA20B16FF0F6
:103C5000010009B0BDE8F08F04EB0B0084B2B44260
:103C6000DCD3280A8DF810008DF81150D8F8000028
:103C7000444604AB817ED8F8040002220078FEF7A7
:103C800064F808B14846E4E7012084F82500089864
:103C9000E0840020DDE70000180000202DE9F84353
:103CA00005464FF0FF39282844D80727284C00261E
:103CB0007DB1012000F0B4FA20208DF800004FF013
:103CC0000108012D17D0052D18D88DF80180052089
:103CD0001FE0002000F0A4FA8DF800608DF801705C
:103CE00020686B460222817C60680078FEF72DF820
:103CF00000BB267529E08DF80160E8E7142D04D893
:103D000002208DF801000A2003E003208DF8010055
:103D1000142000F0B7FA9DF801006B4607EB801005
:103D20008DF8010020680222817C60680078FEF72F
:103D30000CF810B14846BDE8F8830820A07226733D
:103D400084F814800020FFF775FD0020F3E70000E1
:103D500018000020F8B516000D464FF0FF371FD0B1
:103D6000104CA17AE1B1010A8DF80010C0B28DF8B3
:103D70000100411960684289914211D82168007898
:103D80006B46097E0222FDF7E0FF48B92068EAB2DF
:103D90003346417D60680078FDF74AFF002800D077
:103DA0003846F8BD18000020F8B5564C4FF0FF36E5
:103DB000A07A00287DD000258DF8005020686B4641
:103DC0000122C17B60680078FDF7BFFF002870D139
:103DD00020686B460122417960680078FDF7B5FFE5
:103DE000002866D120686B4601220179606800785E
:103DF000FDF7ABFF00285CD194F82400E0B30C2061
:103E00008DF8000020686B46012201796068007817
:103E1000FDF79BFF002872D13220FCF743FCC02045
:103E20008DF80000A07AC00702D0E0208DF80000D5
:103E300020686B460122017960680078FDF785FFF4
:103E400000285CD1607C18B102208DF8000001E0F0
:103E50008DF8005020686B460122C17B60680078B5
:103E6000FDF773FF28BB8DF8005020686B460122D8
:103E70004179606800783EE0FFE704208DF800009B
:103E800020686B460122017960680078FDF75DFFCC
:103E900078B9A07C90B9A07AC0070FD05FF060001D
:103EA0008DF8000020686B46012201796068007877
:103EB00000E024E0FDF749FF08BB01E04020EFE708
:103EC0003220FCF7EFFB607C18B101208DF8000078
:103ED00001E08DF8005020686B460122C17B6068CC
:103EE0000078FDF732FF50B92068064B0122417976
:103EF000606810330078FDF728FF002800D03046B6
:103F0000F8BD0000180000202DE9F047394C82462A
:103F10008AB094F824000F4620B1002000F00EF97A
:103F2000012600E0002607A8FFF740FD06A8FFF7DE
:103F3000FDFC09A8FFF774FD08A8FFF78DFD94F8B4
:103F40000A9094F810800025002239465046FFF769
:103F5000A1F910B16D1C022DF6DB022D1AD000253F
:103F6000012203A96846FFF795F910B16D1C022DD7
:103F7000F6DB022D0ED003A93846FEF7F1FCC7B2DE
:103F800069465046FFF710FB10F0FF0F4FF0000599
:103F900002D002E0002503E001250FB945F002053B
:103FA000FF2020726072E0724FF6FF71E181A07213
:103FB000207401202073BDF81C0000F0FBF89DF870
:103FC000180000F019F8BDF8240000F05BF9BDF806
:103FD000200000F08DF9484600F0CAF94046FFF78E
:103FE00029FC16B1012000F0A9F80AB02846BDE866
:103FF000F08700001800002038B5184C4FF0FF354E
:10400000A17A19B3022806D0042806D008280ED0B9
:1040100010281BD10DE0002000E008208DF80000E2
:10402000607A9DF80010B0EBD10F04D005E01020AD
:10403000F4E71820F2E7002038BD20686B46012223
:10404000C17960680078FDF780FE08B1284638BD68
:104050009DF80000C0086072EDE700001800002025
:10406000F8B5354C0546A07CA84201D10020F8BD2A
:1040700031484FF0FF366B46D0E900104FF0010297
:104080000979007835B3FDF7D3FD70BB9DF80000CA
:104090006B4620F020008DF8000020680122017995
:1040A00060680078FDF751FEF8B90320FCF7FAFAD2
:1040B00002208DF8000094F8220078B382202BE0D3
:1040C00020686B460122017D60680078FDF73DFEA7
:1040D00058B92EE0FDF7ACFD38B9A07AC0079DF8BD
:1040E000000003D040F0200002E00CE020F02000AF
:1040F0008DF8000020686B46012201796068007825
:10410000FDF723FE08B13046F8BD0320FCF7CAFADC
:1041100094F8220000B180208DF8000094F823006C
:104120000028CDD09DF8000040F030008DF8000050
:10413000C6E7A5749AE700001800002038B51C4CAB
:1041400094F8241081421DD0002500B394F8250076
:10415000D0B1002000F014FA0020FFF781FFE08CBE
:1041600000F0C6F88DF8005060686B4601220078B8
:104170002321FDF7EAFD012084F8240000F000FA75
:10418000FFF712FE002038BD4FF0FF3038BD002091
:1041900000F0F6F9207C8DF8000060686B46012283
:1041A00000782321FDF7D1FD84F82450E8E70000D2
:1041B0001800002038B5194C4FF0FF35A17A31B303
:1041C000FA2809D0B0F5FA7F08D0B0F57A7F0FD081
:1041D000B0F5FA6F1BD10DE0002000E008208DF84B
:1041E0000000207A9DF80010B0EBD10F04D005E05C
:1041F0001020F4E71820F2E7002038BD20686B4655
:104200000122817960680078FDF79FFD08B128469A
:1042100038BD9DF80000C0082072EDE718000020AE
:1042200038B5174C054694F82300A84201D1002068
:1042300038BD0DB1302000E000208DF80000A07CDA
:1042400028B19DF8000040F002008DF8000094F8BD
:10425000220028B19DF8000040F080008DF8000099
:1042600020686B460122017D60680078FDF76DFDD6
:1042700010B14FF0FF3038BD84F82350D7E700006D
:104280001800002038B5194C4FF0FF35A17A31B332
:10429000BC2801D3012010E0622801D302200CE0E9
:1042A0002A2801D3032008E0142801D3042004E0C5
:1042B0000A2801D3052000E006208DF80000E07AEE
:1042C0009DF80010884201D1002038BD20686B465F
:1042D0000122817860680078FDF737FD08B1284633
:1042E00038BD9DF80000E072EEE7000018000020E5
:1042F000F8B51E4D04464FF0FF37A87A48B395F83D
:10430000240030BB287D4FF47A7648B164B1282C64
:1043100003D8E0B2FFF7C2FC26E00020FFF7BEFCA6
:10432000042C05D2042406E00020FFF7B7FCF9E7CF
:10433000B44200D93446B6FBF4F0401E8DF80000BC
:1043400028686B460122417868680078FDF7FDFC1B
:1043500008B13846F8BD9DF80000401CB6FBF0F0EF
:10436000E8814008FFF78EFF0020F8BD180000200C
:10437000F8B5054610F0700F4FF0000601D001208F
:1043800004E015B18DF8006002E040208DF80000D7
:10439000244C6B4601222068817C60680078FDF720
:1043A000D4FC4FF0FF3760BB9DF8000020F04000C8
:1043B00020738DF80060680602D404208DF8000098
:1043C000A80605D49DF8000040F002008DF800001A
:1043D000E80605D49DF8000040F001008DF80000CB
:1043E000280705D49DF8000040F038008DF8000043
:1043F00020686B460122C17C60680078FDF7A5FC4F
:1044000010B1A6723846F8BD25B1082D02D00020A3
:10441000FFF706FFA57226753220FCF743F900204E
:10442000F8BD000018000020F8B516000D464FF04A
:10443000FF371FD0104CA17AE1B1010A8DF80010AE
:10444000C0B28DF80100411960684289914211D8CB
:10445000216800786B46097E0222FDF776FC48B998
:104460002068EAB23346417D60680078FDF76DFC54
:10447000002800D03846F8BD1800002010B588B0DC
:10448000694604A8FFF740FD032802D0012008B0C8
:1044900010BD07A8FFF7A4FA0498FBF779FF079966
:1044A0000C46FBF7F9FEFBF781FF04900598FBF73C
:1044B0006FFF2146FBF7F0FEFBF778FF05900698AB
:1044C000FBF766FF2146FBF7E7FEFBF76FFF069061
:1044D00004A8FEF773FC03A8FFF746FABDF80C002A
:1044E000009941430091019941430191029941434F
:1044F00068460291FEF7C4FB0020C8E770B51F486C
:104500000025841E01786268532907D040784D2920
:104510000AD0462923D0412924D02DE00AB1656074
:104520002AE00120606027E002BB462808D042282C
:1045300009D04C280AD052280BD053280CD01BE0AD
:10454000FFF70AF918E0FFF7F7F815E0FFF726F98B
:1045500012E0FFF733F90FE0FFF756F90CE0FBF735
:10456000FFFF09E0452802D0442803D004E0FBF710
:10457000D5FF01E000F00CF9658070BD020000205D
:10458000F8B5144C0146224694F82460D2E90002A2
:1045900000235D1E56B179B1022111E0C17B107874
:1045A0006B460122FDF7D1FB68B90EE0A67A56B141
:1045B00011B1617C61B902E08DF80030EEE70121B4
:1045C0008DF80010EAE72846F8BD9DF800006074F9
:1045D0000020F8BD180000202DE9F0410C460746E8
:1045E00000256A4EB8E0012202213046FCF79DF911
:1045F000002204213046FCF798F9002208213046B9
:10460000FCF793F9002210213046FCF78EF9204682
:10461000FCF748F8012202213046FCF786F9012216
:1046200004213046FCF781F9002208213046FCF7CE
:104630007CF9002210213046FCF777F92046FCF780
:1046400031F8002202213046FCF76FF901220421E3
:104650003046FCF76AF9002208213046FCF765F97C
:10466000002210213046FCF760F92046FCF71AF8CA
:10467000002202213046FCF758F90122042130467D
:10468000FCF753F9012208213046FCF74EF90022CD
:1046900010213046FCF749F92046FCF703F80022C8
:1046A00002213046FCF741F9002204213046FCF794
:1046B0003CF9012208213046FCF737F9002210218D
:1046C0003046FCF732F92046FBF7ECFF00220221CE
:1046D0003046FCF72AF9002204213046FCF725F980
:1046E000012208213046FCF720F901221021304632
:1046F000FCF71BF92046FBF7D5FF002202213046CC
:10470000FCF713F9002204213046FCF70EF90022D1
:1047100008213046FCF709F9012210213046FCF748
:1047200004F92046FBF7BEFF012202213046FCF7C8
:10473000FCF8002204213046FCF7F7F8002208219B
:104740003046FCF7F2F8012210213046FCF7EDF874
:104750002046FBF7A7FF6D1CBD42FFF644AF0022C9
:1047600002213046FCF7E1F8002204213046FCF734
:10477000DCF8002208213046FCF7D7F83046BDE8C7
:10478000F04100221021FCF7D0B8000000080140E1
:104790004FF0804100208863704700000000000057
:1047A00000000102030406070809000000000102DE
:1047B000030475191A0C6A231B1C1F207274433BD7
:1047C0004138393A6B6C376F06246D6E70006800A3
:1047D000000476005401F7FD000100008300000092
:1047E0000008000000010018320005000000204110
:1047F0000000D242295C0F3E9A99993E3333733FB1
:10480000295C0F3E00007000000000240000000240
:104810000003000000650054FFEF0000FA80000B69
:1048200012820001030C30C30E8C8CE914D54002B7
:1048300013710F8E3883F8833000F883258EF88348
:104840003000F883FFFFFFFF0FFEA9D6240004000D
:104850001A8279A10000003CFFFF00000010000058
:1048600038836FA2003E03304000000002CAE30913
:104870003E8000002000000000000000400000001A
:1048800060000000000C0000000C186E0000069292
:104890000A16C0DFFFFF0256FD8CD377FFE1C496F6
:1048A000E0C5BEAA00000000FFFF0B2B000016575A
:1048B000000003594000000000001DFA00026C1DBA
:1048C000000000003FFFDFEB003EB3B6000D227892
:1048D00000002F3C00000000001942B5000039A282
:1048E0000000B365D90E9FC91DCF4C3430000000C5
:1048F000500000003BB67AE80064000000C80000E9
:1049000000000000100000001000FA921000225E6B
:10491000000D229F0001000000320000FF46000051
:1049200063D400001000000004D6000004CC000096
:1049300004CC0000000010720000004000000000E5
:104940000000000000060002000500070000000053
:104950000064000000000000000000050005006485
:1049600000200000000000000000000000004000E7
:104970000000030000000032F8980000FF6500000E
:10498000830F0000FF9BFC000000000000000000FF
:104990000000000000000000000000000000000017
:1049A0000000000000000000000000000000000007
:1049B0000000100040000000000000060000B26A85
:1049C000000200000001FB830068000000D9FC0029
:1049D0007CF1FF830000000000650000006403E834
:1049E00000640028000000250000000016A0000060
:1049F0000000100000001000002F0000000001F473
:104A00000000100000280000FFFF4581FFFFFA7240
:104A10000000000000000000004400050005BAC6C8
:104A2000004778A20000000100000000000006001E
:104A3000000000140000254D002F706D000005AE31
:104A4000000C02D000000000000000000000000088
:104A500000000000001B000000000000000000003B
:104A600000000000006400000008000000000000DA
:104A70000000000000000000000000000000000036
:104A80000000000000000000000000000000000026
:104A90000000000000000000000000000000000016
:104AA0000000000000000000000000000000000006
:104AB00000000000000000000000000000000000F6
:104AC00000000000001B00000000000000000000CB
:104AD000000E000E00000AC70004000000000032B3
:104AE000FFFFFF9C00000B2B0000000200000001F4
:104AF00000000064FFE5000000000000000000006E
:104B000000000000000000010000000000010000A3
:104B10000000000000018000000180000001800012
:104B2000002426D300000000000000000006001052
:104B30000096003C000000000000000000000000A3
:104B4000000000000C0A4E68CDCF77095016675957
:104B5000C619CE8200000000000000000000000026
:104B600000000000000000000000000017D78400D3
:104B7000030000000000000000000000C7938F9DAC
:104B80001E1B1C19000000000000000000000000B7
:104B90000000000000000000000000000203188573
:104BA00000004000000000030000000300000000BF
:104BB00000000000400000000000000000000000B5
:104BC00000000000000000000000000000000000E5
:104BD00000000000000000000000000000000000D5
:104BE0000000000000000000677DDF7E72902E55FF
:104BF0004CF6E68800000000000000000000000005
:104C000000000000D8DCB4B8B0D8B9ABF3F8FAB300
:104C1000B7BB8E9EAEF132F51BF1B4B8B08097F100
:104C2000A9DFDFDFAADFDFDFF2AAC5CDC7A90CC984
:104C30002C97F1A989264666B28999A92D557DB090
:104C4000B08AA896365676F1BAA3B4B280C0B8A896
:104C50009711B28398BAA3F0240844106418B2B92B
:104C6000B49883F1A329557DBAB5B1A38393F0001D
:104C70002850F5B2B6AA839328547CF1B9A3829345
:104C800061BAA2DADEDFDB819AB9AEF5606870F155
:104C9000DABAA2DFD9BAA2FAB9A38292DB31BAA2F8
:104CA000D9BAA2F8DF85A4D0C1BBAD83C2C5C7B84D
:104CB000A2DFDFDFBAA0DFDFDFD8D8F1B8AAB38D7B
:104CC000B4980D355DB2B6BAAF8C96198F9FA70E0A
:104CD000161EB49AB8AA872C547CBAA4B08AB6918E
:104CE000325676B28494A4C808CDD8B8B4B0F1993D
:104CF00082A82D557D98A80E161EA22C547C92A435
:104D0000F02C5078F184A898C4CDFCD80DDBA8FC19
:104D10002DF3D9BAA6F8DABAA6DED8BAB2B6869614
:104D2000A6D0F3C841DAA6C8F8D8B0B4B882A89221
:104D3000F52C548898F135D9F418D8F1A2D0F8F9A7
:104D4000A884D9C7DFF8F883C5DADF69DF83C1D863
:104D5000F40114F1A8824EA884F311D182F5D992FE
:104D6000289788F109F41C1CD884A8F3C0F9D1D97C
:104D70009782F129F40DD8F3F9F9D1D982F4C2035D
:104D8000D8DEDF1AD8F1A2FAF9A88498D9C7DFF8DB
:104D9000F8F883C7DADF69DFF883C3D8F40114F1C8
:104DA00098A8822EA884F311D182F5D992509788C1
:104DB000F109F41CD884A8F3C0F8F9D1D99782F18D
:104DC00049F40DD8F3F9F9D1D982F4C403D8DEDF60
:104DD000D8F1AD8898CCA809F9D98292A8F57CF1D0
:104DE000883ACF944A6E98DB6931DAADF2DEF9D8B1
:104DF0008795A8F221D1DAA5F9F417D9F1AE8ED0B2
:104E0000C0C3AE82C684C3A88595C8A588F2C0F188
:104E1000F4010EF18E9EA8C63E56F554F18872F448
:104E20000115F19845856EF58E9E0488F142985AD9
:104E30008E9E068869F4011CF1981E1108D0F504B5
:104E4000F11E970202983625DBF9D985A5F3C1DA60
:104E500085A5F3DFD88595A8F309DAA5FAD882925B
:104E6000A8F578F1881A849F26889821DAF41DF332
:104E7000D8879F39D1AFD9DFDFFBF9F40CF3D8FA2B
:104E8000D0F8DAF9F9D0DFD9F9D8F40BD8F3879F45
:104E900039D1AFD9DFDFF41DF3D8FAFCA869F9F9ED
:104EA000AFD0DADEFAD9F88F9FA8F1CCF398DB45C2
:104EB000D9AFDFD0F8D8F18F9FA8CAF38809DAAF4D
:104EC0008FCBF8D8F2AD978D0CD9A5DFF9BAA6F340
:104ED000FAF412F2D8950DD1D9BAA6F3FADAA5F2FE
:104EE000C1BAA6F3DFD8F1BAB2B68696A6D0CAF395
:104EF00049DAA6CBF8D8B0B4B8D8AD84F2C0DFF1A7
:104F00008FCBC3A8B2B68696C8C1CBC3F3B0B48862
:104F100098A821DB718D9D71859521D9ADF2FAD8C4
:104F20008597A828D9F408D8F28D29DAF405D9F2A2
:104F300085A4C2F2D8A88D9401D1D9F411F2D887F2
:104F400021D8F40AD8F28498A8C801D1D9F411D88C
:104F5000F3A4C8BBAFD0F2DEF8F8F8F8F8F8F8F828
:104F6000D8F1B8F6B5B9B08A95A3DE3CA3D9F8D884
:104F70005CA3D9F8D87CA3D9F8D8F8F9D1A5D9DFA2
:104F8000DAFAD8B18530F7D9DED8F830ADDADED824
:104F9000F2B48C99A32D557DA083DFDFDFB591A0FE
:104FA000F629D9FBD8A0FC29D9FAD8A0D051D9F834
:104FB000D8FC51D9F9D879D9FBD8A0D0FC79D9FA45
:104FC000D8A1F9F9F9F9F9A0DADFDFDFD8A1F8F80B
:104FD000F8F8F8ACDEF8ADDE8393AC2C547CF1A885
:104FE000DFDFDFF69D2CDAA0DFD9FADB2DF8D8A8B9
:104FF00050DAA0D0DED9D0F8F8F8DB55F8D8A87888
:10500000DAA0D0DFD9D0FAF8F8F8F8DB7DF8D89C30
:10501000A88CF530DB38D9D0DEDFA0D0DEDFD8A811
:1050200048DB58D9DFD0DEA0DFD0DED8A868DB703F
:10503000D9DFDFA0DFDFD8F1A888902C547C98A8B6
:10504000D05C38D1DAF2AE8CDFF9D8B087A8C1C114
:10505000B188A8C6F9F9DA36D8A8F9DA36D8A8F9A5
:10506000DA36D8A8F9DA36D8A8F9DA36D8F78D9D25
:10507000ADF818DAF2AEDFD8F7ADFA30D9A4DEF920
:10508000D8F2AEDEFAF983A7D9C3C5C7F1889BA7CA
:105090007AADF7DEDFA4F8849408A797F300AEF2A8
:1050A0009819A488C6A39488F632DFF28393DB09AB
:1050B000D9F2AADFD8D8AEF8F9D1DAF3A4DEA7F195
:1050C000889B7AD8F38494AE19F9DAAAF1DFD8A8CC
:1050D00081C0C3C5C7A39283F628ADDED9F8D8A393
:1050E00050ADD9F8D8A378ADD9F8D8F8F9D1A1DA6C
:1050F000DEC3C5C7D8A18194F818F2B089ACC3C586
:10510000C7F1D8B8B4B09786A8319B069907AB977A
:1051100028889BF00C201440B0B4B8F0A88A9A28D4
:105120005078B79BA829517924705944693864484C
:1051300031F1BBAB88002C547CF0B38BB8A80428A9
:105140005078F1B088B49726A85998BBABB38B02BE
:10515000264666B0B8F08A9CA82951798B295179E6
:105160008A2470598B2058718A4469388B39406879
:105170008A6448318B30496088F1AC002C547CF053
:105180008CA804285078F1889726A85998AC8C02EE
:10519000264666F0899CA8295179247059446938BB
:1051A000644831A98809205970AB11384069A819A1
:1051B0003148608CA83C415C207C00F187981986BE
:1051C000A86E767EA999882D557DD8B1B5B9A3DF93
:1051D000DFDFAED0DFAAD0DEF2ABF8F9D9B087C4FA
:1051E000AAF1DFDFBBAFDFDFB9D8B1F1A3978E60E3
:1051F000DFB084F2C8F8F9D9DED89385F14AB183DB
:10520000A308B5839A0810B79F10D8F1B0BAAEB012
:105210008AC2B2B68E9EF1FBD9F41DD8F9D90CF131
:10522000D8F8F8AD61D9AEFBD8F40CF1D8F8F8ADE8
:1052300019D9AEFBDFD8F416F1D8F8AD8D61D9F4E9
:10524000F4ACF59C9C8DDF2BBAB6AEFAF8F40BD813
:10525000F1AED0F8AD51DAAEFAF8F1D8B9B1B6A3E3
:10526000839C08B9B1839AB5AAC0FD3083B79F105B
:10527000B58B93F20202D1ABDADED8F1B080BAABD3
:10528000C0C3B284C1C3D8B1B9F38BA391B609B47A
:10529000D9ABDEB0879CB9A3DDF1B38B8B8B8B8B45
:1052A000B087A3A3A3A3B28BB69BF2A3A3A3A3A38C
:1052B000A3A3A3A3A3F1B087B59AA3F39BA3A3DCF5
:1052C000BAACDFB9A3A3A3A3A3A3A3A3A3A3A3A33C
:1052D000A3A3A3A3D8D8D8BBB3B7F1AAF9DAFFD94F
:1052E000809AAA28B48098A720B79787A86688F0E4
:1052F0007951F1902C870CA781976293F0717160BE
:1053000085940129517990A5F1284C6C870C95184A
:105310008578A38390284C6C886CD8F3A28200F225
:1053200010A8921980A2F2D926D8F188A84DD948A0
:10533000D896A83980D93CD89580A839A68698D91E
:105340002CDA87A72CD8A8899519A980D938D8A88C
:105350008939A980DA3CD8A82EA83990D90CD8A8C8
:10536000953198D90CD8A809D9FFD801DAFFD8957A
:1053700039A9DA26FFD890A80D8999A8108098211C
:10538000DA2ED88999A83180DA2ED8A8869631806D
:10539000DA2ED8A8873180DA2ED8A88292F34180FD
:1053A000F1D92ED8A882F31980F1D92ED882ACF386
:1053B000C0A28022F1A62EA72EA92298A829DAAC95
:1053C000DEFFD8A2F22AF1A92E8292A8F23180A69D
:1053D00096F1D900AC8C9C0C30ACDED0DEFFD88CC2
:1053E0009CACD010ACDE8092A2F24C82A8F1CAF242
:1053F00035F19688A6D900D8F1FF000050726F648D
:1054000075637420494420726561642061732030A3
:1054100020696E646963617465732064657669638D
:10542000652069732065697468657220696E636FB1
:105430006D70617469626C65206F7220616E204DC1
:105440005055333035302E0A000000006C540008EF
:105450000000002054000000E8240008C0540008A8
:10546000540000203C050000F82400080000000063
:10547000000000000100000010000000000000001B
:105480000024F400B2470008CE47000800000000E6
:10549000000000000000000000000000000000000C
:1054A000000000000000000000000000DC470008D1
:1054B00001000000010000000100000000000000E9
:04000005080000ED02
:00000001FF
